{
  "_format": "hh-sol-artifact-1",
  "contractName": "MockERC721",
  "sourceName": "contracts/MockERC721.sol",
  "abi": [
    {
      "inputs": [],
      "stateMutability": "nonpayable",
      "type": "constructor"
    },
    {
      "anonymous": false,
      "inputs": [
        {
          "indexed": true,
          "internalType": "address",
          "name": "owner",
          "type": "address"
        },
        {
          "indexed": true,
          "internalType": "address",
          "name": "approved",
          "type": "address"
        },
        {
          "indexed": true,
          "internalType": "uint256",
          "name": "tokenId",
          "type": "uint256"
        }
      ],
      "name": "Approval",
      "type": "event"
    },
    {
      "anonymous": false,
      "inputs": [
        {
          "indexed": true,
          "internalType": "address",
          "name": "owner",
          "type": "address"
        },
        {
          "indexed": true,
          "internalType": "address",
          "name": "operator",
          "type": "address"
        },
        {
          "indexed": false,
          "internalType": "bool",
          "name": "approved",
          "type": "bool"
        }
      ],
      "name": "ApprovalForAll",
      "type": "event"
    },
    {
      "anonymous": false,
      "inputs": [
        {
          "indexed": true,
          "internalType": "address",
          "name": "from",
          "type": "address"
        },
        {
          "indexed": true,
          "internalType": "address",
          "name": "to",
          "type": "address"
        },
        {
          "indexed": true,
          "internalType": "uint256",
          "name": "tokenId",
          "type": "uint256"
        }
      ],
      "name": "Transfer",
      "type": "event"
    },
    {
      "inputs": [
        {
          "internalType": "address",
          "name": "to",
          "type": "address"
        },
        {
          "internalType": "uint256",
          "name": "tokenId",
          "type": "uint256"
        }
      ],
      "name": "approve",
      "outputs": [],
      "stateMutability": "nonpayable",
      "type": "function"
    },
    {
      "inputs": [
        {
          "internalType": "address",
          "name": "owner",
          "type": "address"
        }
      ],
      "name": "balanceOf",
      "outputs": [
        {
          "internalType": "uint256",
          "name": "",
          "type": "uint256"
        }
      ],
      "stateMutability": "view",
      "type": "function"
    },
    {
      "inputs": [
        {
          "internalType": "uint256",
          "name": "_tokenId",
          "type": "uint256"
        }
      ],
      "name": "burn",
      "outputs": [],
      "stateMutability": "nonpayable",
      "type": "function"
    },
    {
      "inputs": [
        {
          "internalType": "uint256",
          "name": "tokenId",
          "type": "uint256"
        }
      ],
      "name": "getApproved",
      "outputs": [
        {
          "internalType": "address",
          "name": "",
          "type": "address"
        }
      ],
      "stateMutability": "view",
      "type": "function"
    },
    {
      "inputs": [
        {
          "internalType": "address",
          "name": "owner",
          "type": "address"
        },
        {
          "internalType": "address",
          "name": "operator",
          "type": "address"
        }
      ],
      "name": "isApprovedForAll",
      "outputs": [
        {
          "internalType": "bool",
          "name": "",
          "type": "bool"
        }
      ],
      "stateMutability": "view",
      "type": "function"
    },
    {
      "inputs": [
        {
          "internalType": "address",
          "name": "_to",
          "type": "address"
        },
        {
          "internalType": "uint256",
          "name": "_tokenId",
          "type": "uint256"
        }
      ],
      "name": "mint",
      "outputs": [],
      "stateMutability": "nonpayable",
      "type": "function"
    },
    {
      "inputs": [],
      "name": "name",
      "outputs": [
        {
          "internalType": "string",
          "name": "",
          "type": "string"
        }
      ],
      "stateMutability": "view",
      "type": "function"
    },
    {
      "inputs": [
        {
          "internalType": "uint256",
          "name": "tokenId",
          "type": "uint256"
        }
      ],
      "name": "ownerOf",
      "outputs": [
        {
          "internalType": "address",
          "name": "",
          "type": "address"
        }
      ],
      "stateMutability": "view",
      "type": "function"
    },
    {
      "inputs": [
        {
          "internalType": "address",
          "name": "from",
          "type": "address"
        },
        {
          "internalType": "address",
          "name": "to",
          "type": "address"
        },
        {
          "internalType": "uint256",
          "name": "tokenId",
          "type": "uint256"
        }
      ],
      "name": "safeTransferFrom",
      "outputs": [],
      "stateMutability": "nonpayable",
      "type": "function"
    },
    {
      "inputs": [
        {
          "internalType": "address",
          "name": "from",
          "type": "address"
        },
        {
          "internalType": "address",
          "name": "to",
          "type": "address"
        },
        {
          "internalType": "uint256",
          "name": "tokenId",
          "type": "uint256"
        },
        {
          "internalType": "bytes",
          "name": "_data",
          "type": "bytes"
        }
      ],
      "name": "safeTransferFrom",
      "outputs": [],
      "stateMutability": "nonpayable",
      "type": "function"
    },
    {
      "inputs": [
        {
          "internalType": "address",
          "name": "operator",
          "type": "address"
        },
        {
          "internalType": "bool",
          "name": "approved",
          "type": "bool"
        }
      ],
      "name": "setApprovalForAll",
      "outputs": [],
      "stateMutability": "nonpayable",
      "type": "function"
    },
    {
      "inputs": [
        {
          "internalType": "bytes4",
          "name": "interfaceId",
          "type": "bytes4"
        }
      ],
      "name": "supportsInterface",
      "outputs": [
        {
          "internalType": "bool",
          "name": "",
          "type": "bool"
        }
      ],
      "stateMutability": "view",
      "type": "function"
    },
    {
      "inputs": [],
      "name": "symbol",
      "outputs": [
        {
          "internalType": "string",
          "name": "",
          "type": "string"
        }
      ],
      "stateMutability": "view",
      "type": "function"
    },
    {
      "inputs": [
        {
          "internalType": "uint256",
          "name": "tokenId",
          "type": "uint256"
        }
      ],
      "name": "tokenURI",
      "outputs": [
        {
          "internalType": "string",
          "name": "",
          "type": "string"
        }
      ],
      "stateMutability": "view",
      "type": "function"
    },
    {
      "inputs": [
        {
          "internalType": "address",
          "name": "from",
          "type": "address"
        },
        {
          "internalType": "address",
          "name": "to",
          "type": "address"
        },
        {
          "internalType": "uint256",
          "name": "tokenId",
          "type": "uint256"
        }
      ],
      "name": "transferFrom",
      "outputs": [],
      "stateMutability": "nonpayable",
      "type": "function"
    }
  ],
  "bytecode": "0x60806040523480156200001157600080fd5b506040518060400160405280600a81526020017f4d6f636b455243373231000000000000000000000000000000000000000000008152506040518060400160405280600481526020017f4d4f434b00000000000000000000000000000000000000000000000000000000815250816000908051906020019062000096929190620000b8565b508060019080519060200190620000af929190620000b8565b505050620001cd565b828054620000c69062000168565b90600052602060002090601f016020900481019282620000ea576000855562000136565b82601f106200010557805160ff191683800117855562000136565b8280016001018555821562000136579182015b828111156200013557825182559160200191906001019062000118565b5b50905062000145919062000149565b5090565b5b80821115620001645760008160009055506001016200014a565b5090565b600060028204905060018216806200018157607f821691505b602082108114156200019857620001976200019e565b5b50919050565b7f4e487b7100000000000000000000000000000000000000000000000000000000600052602260045260246000fd5b61286780620001dd6000396000f3fe608060405234801561001057600080fd5b50600436106100f55760003560e01c806342966c6811610097578063a22cb46511610066578063a22cb46514610282578063b88d4fde1461029e578063c87b56dd146102ba578063e985e9c5146102ea576100f5565b806342966c68146101e85780636352211e1461020457806370a082311461023457806395d89b4114610264576100f5565b8063095ea7b3116100d3578063095ea7b31461017857806323b872dd1461019457806340c10f19146101b057806342842e0e146101cc576100f5565b806301ffc9a7146100fa57806306fdde031461012a578063081812fc14610148575b600080fd5b610114600480360381019061010f9190611a69565b61031a565b6040516101219190611e29565b60405180910390f35b6101326103fc565b60405161013f9190611e44565b60405180910390f35b610162600480360381019061015d9190611abb565b61048e565b60405161016f9190611dc2565b60405180910390f35b610192600480360381019061018d9190611a2d565b610513565b005b6101ae60048036038101906101a99190611927565b61062b565b005b6101ca60048036038101906101c59190611a2d565b61068b565b005b6101e660048036038101906101e19190611927565b6106e0565b005b61020260048036038101906101fd9190611abb565b610700565b005b61021e60048036038101906102199190611abb565b61071e565b60405161022b9190611dc2565b60405180910390f35b61024e600480360381019061024991906118c2565b6107d0565b60405161025b9190612026565b60405180910390f35b61026c610888565b6040516102799190611e44565b60405180910390f35b61029c600480360381019061029791906119f1565b61091a565b005b6102b860048036038101906102b39190611976565b610930565b005b6102d460048036038101906102cf9190611abb565b610992565b6040516102e19190611e44565b60405180910390f35b61030460048036038101906102ff91906118eb565b610a39565b6040516103119190611e29565b60405180910390f35b60007f80ac58cd000000000000000000000000000000000000000000000000000000007bffffffffffffffffffffffffffffffffffffffffffffffffffffffff1916827bffffffffffffffffffffffffffffffffffffffffffffffffffffffff191614806103e557507f5b5e139f000000000000000000000000000000000000000000000000000000007bffffffffffffffffffffffffffffffffffffffffffffffffffffffff1916827bffffffffffffffffffffffffffffffffffffffffffffffffffffffff1916145b806103f557506103f482610acd565b5b9050919050565b60606000805461040b9061224b565b80601f01602080910402602001604051908101604052809291908181526020018280546104379061224b565b80156104845780601f1061045957610100808354040283529160200191610484565b820191906000526020600020905b81548152906001019060200180831161046757829003601f168201915b5050505050905090565b600061049982610b37565b6104d8576040517f08c379a00000000000000000000000000000000000000000000000000000000081526004016104cf90611fa6565b60405180910390fd5b6004600083815260200190815260200160002060009054906101000a900473ffffffffffffffffffffffffffffffffffffffff169050919050565b600061051e8261071e565b90508073ffffffffffffffffffffffffffffffffffffffff168373ffffffffffffffffffffffffffffffffffffffff16141561058f576040517f08c379a000000000000000000000000000000000000000000000000000000000815260040161058690611fe6565b60405180910390fd5b8073ffffffffffffffffffffffffffffffffffffffff166105ae610ba3565b73ffffffffffffffffffffffffffffffffffffffff1614806105dd57506105dc816105d7610ba3565b610a39565b5b61061c576040517f08c379a000000000000000000000000000000000000000000000000000000000815260040161061390611f26565b60405180910390fd5b6106268383610bab565b505050565b61063c610636610ba3565b82610c64565b61067b576040517f08c379a000000000000000000000000000000000000000000000000000000000815260040161067290612006565b60405180910390fd5b610686838383610d42565b505050565b600073ffffffffffffffffffffffffffffffffffffffff168273ffffffffffffffffffffffffffffffffffffffff1614156106c557600080fd5b600081116106d257600080fd5b6106dc8282610fa9565b5050565b6106fb83838360405180602001604052806000815250610930565b505050565b61070981610b37565b61071257600080fd5b61071b81611183565b50565b6000806002600084815260200190815260200160002060009054906101000a900473ffffffffffffffffffffffffffffffffffffffff169050600073ffffffffffffffffffffffffffffffffffffffff168173ffffffffffffffffffffffffffffffffffffffff1614156107c7576040517f08c379a00000000000000000000000000000000000000000000000000000000081526004016107be90611f66565b60405180910390fd5b80915050919050565b60008073ffffffffffffffffffffffffffffffffffffffff168273ffffffffffffffffffffffffffffffffffffffff161415610841576040517f08c379a000000000000000000000000000000000000000000000000000000000815260040161083890611f46565b60405180910390fd5b600360008373ffffffffffffffffffffffffffffffffffffffff1673ffffffffffffffffffffffffffffffffffffffff168152602001908152602001600020549050919050565b6060600180546108979061224b565b80601f01602080910402602001604051908101604052809291908181526020018280546108c39061224b565b80156109105780601f106108e557610100808354040283529160200191610910565b820191906000526020600020905b8154815290600101906020018083116108f357829003601f168201915b5050505050905090565b61092c610925610ba3565b83836112a0565b5050565b61094161093b610ba3565b83610c64565b610980576040517f08c379a000000000000000000000000000000000000000000000000000000000815260040161097790612006565b60405180910390fd5b61098c8484848461140d565b50505050565b606061099d82610b37565b6109dc576040517f08c379a00000000000000000000000000000000000000000000000000000000081526004016109d390611fc6565b60405180910390fd5b60006109e6611469565b90506000815111610a065760405180602001604052806000815250610a31565b80610a1084611480565b604051602001610a21929190611d9e565b6040516020818303038152906040525b915050919050565b6000600560008473ffffffffffffffffffffffffffffffffffffffff1673ffffffffffffffffffffffffffffffffffffffff16815260200190815260200160002060008373ffffffffffffffffffffffffffffffffffffffff1673ffffffffffffffffffffffffffffffffffffffff16815260200190815260200160002060009054906101000a900460ff16905092915050565b60007f01ffc9a7000000000000000000000000000000000000000000000000000000007bffffffffffffffffffffffffffffffffffffffffffffffffffffffff1916827bffffffffffffffffffffffffffffffffffffffffffffffffffffffff1916149050919050565b60008073ffffffffffffffffffffffffffffffffffffffff166002600084815260200190815260200160002060009054906101000a900473ffffffffffffffffffffffffffffffffffffffff1673ffffffffffffffffffffffffffffffffffffffff1614159050919050565b600033905090565b816004600083815260200190815260200160002060006101000a81548173ffffffffffffffffffffffffffffffffffffffff021916908373ffffffffffffffffffffffffffffffffffffffff160217905550808273ffffffffffffffffffffffffffffffffffffffff16610c1e8361071e565b73ffffffffffffffffffffffffffffffffffffffff167f8c5be1e5ebec7d5bd14f71427d1e84f3dd0314c0f7b2291e5b200ac8c7c3b92560405160405180910390a45050565b6000610c6f82610b37565b610cae576040517f08c379a0000000000000000000000000000000000000000000000000000000008152600401610ca590611f06565b60405180910390fd5b6000610cb98361071e565b90508073ffffffffffffffffffffffffffffffffffffffff168473ffffffffffffffffffffffffffffffffffffffff161480610cfb5750610cfa8185610a39565b5b80610d3957508373ffffffffffffffffffffffffffffffffffffffff16610d218461048e565b73ffffffffffffffffffffffffffffffffffffffff16145b91505092915050565b8273ffffffffffffffffffffffffffffffffffffffff16610d628261071e565b73ffffffffffffffffffffffffffffffffffffffff1614610db8576040517f08c379a0000000000000000000000000000000000000000000000000000000008152600401610daf90611e86565b60405180910390fd5b600073ffffffffffffffffffffffffffffffffffffffff168273ffffffffffffffffffffffffffffffffffffffff161415610e28576040517f08c379a0000000000000000000000000000000000000000000000000000000008152600401610e1f90611ec6565b60405180910390fd5b610e3383838361162d565b610e3e600082610bab565b6001600360008573ffffffffffffffffffffffffffffffffffffffff1673ffffffffffffffffffffffffffffffffffffffff1681526020019081526020016000206000828254610e8e9190612161565b925050819055506001600360008473ffffffffffffffffffffffffffffffffffffffff1673ffffffffffffffffffffffffffffffffffffffff1681526020019081526020016000206000828254610ee591906120da565b92505081905550816002600083815260200190815260200160002060006101000a81548173ffffffffffffffffffffffffffffffffffffffff021916908373ffffffffffffffffffffffffffffffffffffffff160217905550808273ffffffffffffffffffffffffffffffffffffffff168473ffffffffffffffffffffffffffffffffffffffff167fddf252ad1be2c89b69c2b068fc378daa952ba7f163c4a11628f55a4df523b3ef60405160405180910390a4610fa4838383611632565b505050565b600073ffffffffffffffffffffffffffffffffffffffff168273ffffffffffffffffffffffffffffffffffffffff161415611019576040517f08c379a000000000000000000000000000000000000000000000000000000000815260040161101090611f86565b60405180910390fd5b61102281610b37565b15611062576040517f08c379a000000000000000000000000000000000000000000000000000000000815260040161105990611ea6565b60405180910390fd5b61106e6000838361162d565b6001600360008473ffffffffffffffffffffffffffffffffffffffff1673ffffffffffffffffffffffffffffffffffffffff16815260200190815260200160002060008282546110be91906120da565b92505081905550816002600083815260200190815260200160002060006101000a81548173ffffffffffffffffffffffffffffffffffffffff021916908373ffffffffffffffffffffffffffffffffffffffff160217905550808273ffffffffffffffffffffffffffffffffffffffff16600073ffffffffffffffffffffffffffffffffffffffff167fddf252ad1be2c89b69c2b068fc378daa952ba7f163c4a11628f55a4df523b3ef60405160405180910390a461117f60008383611632565b5050565b600061118e8261071e565b905061119c8160008461162d565b6111a7600083610bab565b6001600360008373ffffffffffffffffffffffffffffffffffffffff1673ffffffffffffffffffffffffffffffffffffffff16815260200190815260200160002060008282546111f79190612161565b925050819055506002600083815260200190815260200160002060006101000a81549073ffffffffffffffffffffffffffffffffffffffff021916905581600073ffffffffffffffffffffffffffffffffffffffff168273ffffffffffffffffffffffffffffffffffffffff167fddf252ad1be2c89b69c2b068fc378daa952ba7f163c4a11628f55a4df523b3ef60405160405180910390a461129c81600084611632565b5050565b8173ffffffffffffffffffffffffffffffffffffffff168373ffffffffffffffffffffffffffffffffffffffff16141561130f576040517f08c379a000000000000000000000000000000000000000000000000000000000815260040161130690611ee6565b60405180910390fd5b80600560008573ffffffffffffffffffffffffffffffffffffffff1673ffffffffffffffffffffffffffffffffffffffff16815260200190815260200160002060008473ffffffffffffffffffffffffffffffffffffffff1673ffffffffffffffffffffffffffffffffffffffff16815260200190815260200160002060006101000a81548160ff0219169083151502179055508173ffffffffffffffffffffffffffffffffffffffff168373ffffffffffffffffffffffffffffffffffffffff167f17307eab39ab6107e8899845ad3d59bd9653f200f220920489ca2b5937696c31836040516114009190611e29565b60405180910390a3505050565b611418848484610d42565b61142484848484611637565b611463576040517f08c379a000000000000000000000000000000000000000000000000000000000815260040161145a90611e66565b60405180910390fd5b50505050565b606060405180602001604052806000815250905090565b606060008214156114c8576040518060400160405280600181526020017f30000000000000000000000000000000000000000000000000000000000000008152509050611628565b600082905060005b600082146114fa5780806114e3906122ae565b915050600a826114f39190612130565b91506114d0565b60008167ffffffffffffffff81111561153c577f4e487b7100000000000000000000000000000000000000000000000000000000600052604160045260246000fd5b6040519080825280601f01601f19166020018201604052801561156e5781602001600182028036833780820191505090505b5090505b60008514611621576001826115879190612161565b9150600a8561159691906122f7565b60306115a291906120da565b60f81b8183815181106115de577f4e487b7100000000000000000000000000000000000000000000000000000000600052603260045260246000fd5b60200101907effffffffffffffffffffffffffffffffffffffffffffffffffffffffffffff1916908160001a905350600a8561161a9190612130565b9450611572565b8093505050505b919050565b505050565b505050565b60006116588473ffffffffffffffffffffffffffffffffffffffff166117ce565b156117c1578373ffffffffffffffffffffffffffffffffffffffff1663150b7a02611681610ba3565b8786866040518563ffffffff1660e01b81526004016116a39493929190611ddd565b602060405180830381600087803b1580156116bd57600080fd5b505af19250505080156116ee57506040513d601f19601f820116820180604052508101906116eb9190611a92565b60015b611771573d806000811461171e576040519150601f19603f3d011682016040523d82523d6000602084013e611723565b606091505b50600081511415611769576040517f08c379a000000000000000000000000000000000000000000000000000000000815260040161176090611e66565b60405180910390fd5b805181602001fd5b63150b7a0260e01b7bffffffffffffffffffffffffffffffffffffffffffffffffffffffff1916817bffffffffffffffffffffffffffffffffffffffffffffffffffffffff1916149150506117c6565b600190505b949350505050565b6000808273ffffffffffffffffffffffffffffffffffffffff163b119050919050565b60006118046117ff84612066565b612041565b90508281526020810184848401111561181c57600080fd5b611827848285612209565b509392505050565b60008135905061183e816127d5565b92915050565b600081359050611853816127ec565b92915050565b60008135905061186881612803565b92915050565b60008151905061187d81612803565b92915050565b600082601f83011261189457600080fd5b81356118a48482602086016117f1565b91505092915050565b6000813590506118bc8161281a565b92915050565b6000602082840312156118d457600080fd5b60006118e28482850161182f565b91505092915050565b600080604083850312156118fe57600080fd5b600061190c8582860161182f565b925050602061191d8582860161182f565b9150509250929050565b60008060006060848603121561193c57600080fd5b600061194a8682870161182f565b935050602061195b8682870161182f565b925050604061196c868287016118ad565b9150509250925092565b6000806000806080858703121561198c57600080fd5b600061199a8782880161182f565b94505060206119ab8782880161182f565b93505060406119bc878288016118ad565b925050606085013567ffffffffffffffff8111156119d957600080fd5b6119e587828801611883565b91505092959194509250565b60008060408385031215611a0457600080fd5b6000611a128582860161182f565b9250506020611a2385828601611844565b9150509250929050565b60008060408385031215611a4057600080fd5b6000611a4e8582860161182f565b9250506020611a5f858286016118ad565b9150509250929050565b600060208284031215611a7b57600080fd5b6000611a8984828501611859565b91505092915050565b600060208284031215611aa457600080fd5b6000611ab28482850161186e565b91505092915050565b600060208284031215611acd57600080fd5b6000611adb848285016118ad565b91505092915050565b611aed81612195565b82525050565b611afc816121a7565b82525050565b6000611b0d82612097565b611b1781856120ad565b9350611b27818560208601612218565b611b30816123e4565b840191505092915050565b6000611b46826120a2565b611b5081856120be565b9350611b60818560208601612218565b611b69816123e4565b840191505092915050565b6000611b7f826120a2565b611b8981856120cf565b9350611b99818560208601612218565b80840191505092915050565b6000611bb26032836120be565b9150611bbd826123f5565b604082019050919050565b6000611bd56025836120be565b9150611be082612444565b604082019050919050565b6000611bf8601c836120be565b9150611c0382612493565b602082019050919050565b6000611c1b6024836120be565b9150611c26826124bc565b604082019050919050565b6000611c3e6019836120be565b9150611c498261250b565b602082019050919050565b6000611c61602c836120be565b9150611c6c82612534565b604082019050919050565b6000611c846038836120be565b9150611c8f82612583565b604082019050919050565b6000611ca7602a836120be565b9150611cb2826125d2565b604082019050919050565b6000611cca6029836120be565b9150611cd582612621565b604082019050919050565b6000611ced6020836120be565b9150611cf882612670565b602082019050919050565b6000611d10602c836120be565b9150611d1b82612699565b604082019050919050565b6000611d33602f836120be565b9150611d3e826126e8565b604082019050919050565b6000611d566021836120be565b9150611d6182612737565b604082019050919050565b6000611d796031836120be565b9150611d8482612786565b604082019050919050565b611d98816121ff565b82525050565b6000611daa8285611b74565b9150611db68284611b74565b91508190509392505050565b6000602082019050611dd76000830184611ae4565b92915050565b6000608082019050611df26000830187611ae4565b611dff6020830186611ae4565b611e0c6040830185611d8f565b8181036060830152611e1e8184611b02565b905095945050505050565b6000602082019050611e3e6000830184611af3565b92915050565b60006020820190508181036000830152611e5e8184611b3b565b905092915050565b60006020820190508181036000830152611e7f81611ba5565b9050919050565b60006020820190508181036000830152611e9f81611bc8565b9050919050565b60006020820190508181036000830152611ebf81611beb565b9050919050565b60006020820190508181036000830152611edf81611c0e565b9050919050565b60006020820190508181036000830152611eff81611c31565b9050919050565b60006020820190508181036000830152611f1f81611c54565b9050919050565b60006020820190508181036000830152611f3f81611c77565b9050919050565b60006020820190508181036000830152611f5f81611c9a565b9050919050565b60006020820190508181036000830152611f7f81611cbd565b9050919050565b60006020820190508181036000830152611f9f81611ce0565b9050919050565b60006020820190508181036000830152611fbf81611d03565b9050919050565b60006020820190508181036000830152611fdf81611d26565b9050919050565b60006020820190508181036000830152611fff81611d49565b9050919050565b6000602082019050818103600083015261201f81611d6c565b9050919050565b600060208201905061203b6000830184611d8f565b92915050565b600061204b61205c565b9050612057828261227d565b919050565b6000604051905090565b600067ffffffffffffffff821115612081576120806123b5565b5b61208a826123e4565b9050602081019050919050565b600081519050919050565b600081519050919050565b600082825260208201905092915050565b600082825260208201905092915050565b600081905092915050565b60006120e5826121ff565b91506120f0836121ff565b9250827fffffffffffffffffffffffffffffffffffffffffffffffffffffffffffffffff0382111561212557612124612328565b5b828201905092915050565b600061213b826121ff565b9150612146836121ff565b92508261215657612155612357565b5b828204905092915050565b600061216c826121ff565b9150612177836121ff565b92508282101561218a57612189612328565b5b828203905092915050565b60006121a0826121df565b9050919050565b60008115159050919050565b60007fffffffff0000000000000000000000000000000000000000000000000000000082169050919050565b600073ffffffffffffffffffffffffffffffffffffffff82169050919050565b6000819050919050565b82818337600083830152505050565b60005b8381101561223657808201518184015260208101905061221b565b83811115612245576000848401525b50505050565b6000600282049050600182168061226357607f821691505b6020821081141561227757612276612386565b5b50919050565b612286826123e4565b810181811067ffffffffffffffff821117156122a5576122a46123b5565b5b80604052505050565b60006122b9826121ff565b91507fffffffffffffffffffffffffffffffffffffffffffffffffffffffffffffffff8214156122ec576122eb612328565b5b600182019050919050565b6000612302826121ff565b915061230d836121ff565b92508261231d5761231c612357565b5b828206905092915050565b7f4e487b7100000000000000000000000000000000000000000000000000000000600052601160045260246000fd5b7f4e487b7100000000000000000000000000000000000000000000000000000000600052601260045260246000fd5b7f4e487b7100000000000000000000000000000000000000000000000000000000600052602260045260246000fd5b7f4e487b7100000000000000000000000000000000000000000000000000000000600052604160045260246000fd5b6000601f19601f8301169050919050565b7f4552433732313a207472616e7366657220746f206e6f6e20455243373231526560008201527f63656976657220696d706c656d656e7465720000000000000000000000000000602082015250565b7f4552433732313a207472616e736665722066726f6d20696e636f72726563742060008201527f6f776e6572000000000000000000000000000000000000000000000000000000602082015250565b7f4552433732313a20746f6b656e20616c7265616479206d696e74656400000000600082015250565b7f4552433732313a207472616e7366657220746f20746865207a65726f2061646460008201527f7265737300000000000000000000000000000000000000000000000000000000602082015250565b7f4552433732313a20617070726f766520746f2063616c6c657200000000000000600082015250565b7f4552433732313a206f70657261746f7220717565727920666f72206e6f6e657860008201527f697374656e7420746f6b656e0000000000000000000000000000000000000000602082015250565b7f4552433732313a20617070726f76652063616c6c6572206973206e6f74206f7760008201527f6e6572206e6f7220617070726f76656420666f7220616c6c0000000000000000602082015250565b7f4552433732313a2062616c616e636520717565727920666f7220746865207a6560008201527f726f206164647265737300000000000000000000000000000000000000000000602082015250565b7f4552433732313a206f776e657220717565727920666f72206e6f6e657869737460008201527f656e7420746f6b656e0000000000000000000000000000000000000000000000602082015250565b7f4552433732313a206d696e7420746f20746865207a65726f2061646472657373600082015250565b7f4552433732313a20617070726f76656420717565727920666f72206e6f6e657860008201527f697374656e7420746f6b656e0000000000000000000000000000000000000000602082015250565b7f4552433732314d657461646174613a2055524920717565727920666f72206e6f60008201527f6e6578697374656e7420746f6b656e0000000000000000000000000000000000602082015250565b7f4552433732313a20617070726f76616c20746f2063757272656e74206f776e6560008201527f7200000000000000000000000000000000000000000000000000000000000000602082015250565b7f4552433732313a207472616e736665722063616c6c6572206973206e6f74206f60008201527f776e6572206e6f7220617070726f766564000000000000000000000000000000602082015250565b6127de81612195565b81146127e957600080fd5b50565b6127f5816121a7565b811461280057600080fd5b50565b61280c816121b3565b811461281757600080fd5b50565b612823816121ff565b811461282e57600080fd5b5056fea2646970667358221220e178c3159a8d328f9a8466cdea8f4de55b34dc97596c106bd552c59b22ebb4fc64736f6c63430008040033",
  "linkReferences": {},
  "deployedLinkReferences": {}
}