{
  "_format": "hh-sol-artifact-1",
  "contractName": "MockERC20Upgradeable",
  "sourceName": "contracts/MockERC20Upgradeable.sol",
  "abi": [
    {
      "anonymous": false,
      "inputs": [
        {
          "indexed": true,
          "internalType": "address",
          "name": "owner",
          "type": "address"
        },
        {
          "indexed": true,
          "internalType": "address",
          "name": "spender",
          "type": "address"
        },
        {
          "indexed": false,
          "internalType": "uint256",
          "name": "value",
          "type": "uint256"
        }
      ],
      "name": "Approval",
      "type": "event"
    },
    {
      "anonymous": false,
      "inputs": [
        {
          "indexed": false,
          "internalType": "uint8",
          "name": "version",
          "type": "uint8"
        }
      ],
      "name": "Initialized",
      "type": "event"
    },
    {
      "anonymous": false,
      "inputs": [
        {
          "indexed": true,
          "internalType": "address",
          "name": "from",
          "type": "address"
        },
        {
          "indexed": true,
          "internalType": "address",
          "name": "to",
          "type": "address"
        },
        {
          "indexed": false,
          "internalType": "uint256",
          "name": "value",
          "type": "uint256"
        }
      ],
      "name": "Transfer",
      "type": "event"
    },
    {
      "inputs": [
        {
          "internalType": "address",
          "name": "owner",
          "type": "address"
        },
        {
          "internalType": "address",
          "name": "spender",
          "type": "address"
        }
      ],
      "name": "allowance",
      "outputs": [
        {
          "internalType": "uint256",
          "name": "",
          "type": "uint256"
        }
      ],
      "stateMutability": "view",
      "type": "function"
    },
    {
      "inputs": [
        {
          "internalType": "address",
          "name": "spender",
          "type": "address"
        },
        {
          "internalType": "uint256",
          "name": "amount",
          "type": "uint256"
        }
      ],
      "name": "approve",
      "outputs": [
        {
          "internalType": "bool",
          "name": "",
          "type": "bool"
        }
      ],
      "stateMutability": "nonpayable",
      "type": "function"
    },
    {
      "inputs": [
        {
          "internalType": "address",
          "name": "account",
          "type": "address"
        }
      ],
      "name": "balanceOf",
      "outputs": [
        {
          "internalType": "uint256",
          "name": "",
          "type": "uint256"
        }
      ],
      "stateMutability": "view",
      "type": "function"
    },
    {
      "inputs": [
        {
          "internalType": "uint256",
          "name": "_amount",
          "type": "uint256"
        }
      ],
      "name": "burn",
      "outputs": [],
      "stateMutability": "nonpayable",
      "type": "function"
    },
    {
      "inputs": [],
      "name": "decimals",
      "outputs": [
        {
          "internalType": "uint8",
          "name": "",
          "type": "uint8"
        }
      ],
      "stateMutability": "view",
      "type": "function"
    },
    {
      "inputs": [
        {
          "internalType": "address",
          "name": "spender",
          "type": "address"
        },
        {
          "internalType": "uint256",
          "name": "subtractedValue",
          "type": "uint256"
        }
      ],
      "name": "decreaseAllowance",
      "outputs": [
        {
          "internalType": "bool",
          "name": "",
          "type": "bool"
        }
      ],
      "stateMutability": "nonpayable",
      "type": "function"
    },
    {
      "inputs": [
        {
          "internalType": "address",
          "name": "spender",
          "type": "address"
        },
        {
          "internalType": "uint256",
          "name": "addedValue",
          "type": "uint256"
        }
      ],
      "name": "increaseAllowance",
      "outputs": [
        {
          "internalType": "bool",
          "name": "",
          "type": "bool"
        }
      ],
      "stateMutability": "nonpayable",
      "type": "function"
    },
    {
      "inputs": [
        {
          "internalType": "string",
          "name": "name_",
          "type": "string"
        },
        {
          "internalType": "string",
          "name": "symbol_",
          "type": "string"
        }
      ],
      "name": "initialize",
      "outputs": [],
      "stateMutability": "nonpayable",
      "type": "function"
    },
    {
      "inputs": [
        {
          "internalType": "address",
          "name": "_to",
          "type": "address"
        },
        {
          "internalType": "uint256",
          "name": "_amount",
          "type": "uint256"
        }
      ],
      "name": "mint",
      "outputs": [],
      "stateMutability": "nonpayable",
      "type": "function"
    },
    {
      "inputs": [],
      "name": "name",
      "outputs": [
        {
          "internalType": "string",
          "name": "",
          "type": "string"
        }
      ],
      "stateMutability": "view",
      "type": "function"
    },
    {
      "inputs": [],
      "name": "symbol",
      "outputs": [
        {
          "internalType": "string",
          "name": "",
          "type": "string"
        }
      ],
      "stateMutability": "view",
      "type": "function"
    },
    {
      "inputs": [],
      "name": "totalSupply",
      "outputs": [
        {
          "internalType": "uint256",
          "name": "",
          "type": "uint256"
        }
      ],
      "stateMutability": "view",
      "type": "function"
    },
    {
      "inputs": [
        {
          "internalType": "address",
          "name": "to",
          "type": "address"
        },
        {
          "internalType": "uint256",
          "name": "amount",
          "type": "uint256"
        }
      ],
      "name": "transfer",
      "outputs": [
        {
          "internalType": "bool",
          "name": "",
          "type": "bool"
        }
      ],
      "stateMutability": "nonpayable",
      "type": "function"
    },
    {
      "inputs": [
        {
          "internalType": "address",
          "name": "from",
          "type": "address"
        },
        {
          "internalType": "address",
          "name": "to",
          "type": "address"
        },
        {
          "internalType": "uint256",
          "name": "amount",
          "type": "uint256"
        }
      ],
      "name": "transferFrom",
      "outputs": [
        {
          "internalType": "bool",
          "name": "",
          "type": "bool"
        }
      ],
      "stateMutability": "nonpayable",
      "type": "function"
    }
  ],
  "bytecode": "0x608060405234801561001057600080fd5b50611f68806100206000396000f3fe608060405234801561001057600080fd5b50600436106100ea5760003560e01c806342966c681161008c57806395d89b411161006657806395d89b411461025d578063a457c2d71461027b578063a9059cbb146102ab578063dd62ed3e146102db576100ea565b806342966c68146101f55780634cd88b761461021157806370a082311461022d576100ea565b806323b872dd116100c857806323b872dd1461015b578063313ce5671461018b57806339509351146101a957806340c10f19146101d9576100ea565b806306fdde03146100ef578063095ea7b31461010d57806318160ddd1461013d575b600080fd5b6100f761030b565b604051610104919061171e565b60405180910390f35b610127600480360381019061012291906113fe565b61039d565b60405161013491906116e8565b60405180910390f35b6101456103c0565b60405161015291906118c0565b60405180910390f35b610175600480360381019061017091906113af565b6103ca565b60405161018291906116e8565b60405180910390f35b6101936103f9565b6040516101a091906118db565b60405180910390f35b6101c360048036038101906101be91906113fe565b610402565b6040516101d091906116e8565b60405180910390f35b6101f360048036038101906101ee91906113fe565b610439565b005b61020f600480360381019061020a91906114a6565b61048e565b005b61022b6004803603810190610226919061143a565b6104af565b005b6102476004803603810190610242919061134a565b610547565b60405161025491906118c0565b60405180910390f35b610265610590565b604051610272919061171e565b60405180910390f35b610295600480360381019061029091906113fe565b610622565b6040516102a291906116e8565b60405180910390f35b6102c560048036038101906102c091906113fe565b610699565b6040516102d291906116e8565b60405180910390f35b6102f560048036038101906102f09190611373565b6106bc565b60405161030291906118c0565b60405180910390f35b60606036805461031a90611a9b565b80601f016020809104026020016040519081016040528092919081815260200182805461034690611a9b565b80156103935780601f1061036857610100808354040283529160200191610393565b820191906000526020600020905b81548152906001019060200180831161037657829003601f168201915b5050505050905090565b6000806103a8610743565b90506103b581858561074b565b600191505092915050565b6000603554905090565b6000806103d5610743565b90506103e2858285610916565b6103ed8585856109a2565b60019150509392505050565b60006012905090565b60008061040d610743565b905061042e81858561041f85896106bc565b6104299190611968565b61074b565b600191505092915050565b600073ffffffffffffffffffffffffffffffffffffffff168273ffffffffffffffffffffffffffffffffffffffff16141561047357600080fd5b6000811161048057600080fd5b61048a8282610c26565b5050565b6000811161049b57600080fd5b6104ac6104a6610743565b82610d87565b50565b60006104bb6001610f60565b905080156104df576001600060016101000a81548160ff0219169083151502179055505b6104e98383611050565b80156105425760008060016101000a81548160ff0219169083151502179055507f7f26b83ff96e1f2b6a682f133852f6798a09c465da95921460cefb384740249860016040516105399190611703565b60405180910390a15b505050565b6000603360008373ffffffffffffffffffffffffffffffffffffffff1673ffffffffffffffffffffffffffffffffffffffff168152602001908152602001600020549050919050565b60606037805461059f90611a9b565b80601f01602080910402602001604051908101604052809291908181526020018280546105cb90611a9b565b80156106185780601f106105ed57610100808354040283529160200191610618565b820191906000526020600020905b8154815290600101906020018083116105fb57829003601f168201915b5050505050905090565b60008061062d610743565b9050600061063b82866106bc565b905083811015610680576040517f08c379a000000000000000000000000000000000000000000000000000000000815260040161067790611880565b60405180910390fd5b61068d828686840361074b565b60019250505092915050565b6000806106a4610743565b90506106b18185856109a2565b600191505092915050565b6000603460008473ffffffffffffffffffffffffffffffffffffffff1673ffffffffffffffffffffffffffffffffffffffff16815260200190815260200160002060008373ffffffffffffffffffffffffffffffffffffffff1673ffffffffffffffffffffffffffffffffffffffff16815260200190815260200160002054905092915050565b600033905090565b600073ffffffffffffffffffffffffffffffffffffffff168373ffffffffffffffffffffffffffffffffffffffff1614156107bb576040517f08c379a00000000000000000000000000000000000000000000000000000000081526004016107b290611840565b60405180910390fd5b600073ffffffffffffffffffffffffffffffffffffffff168273ffffffffffffffffffffffffffffffffffffffff16141561082b576040517f08c379a000000000000000000000000000000000000000000000000000000000815260040161082290611780565b60405180910390fd5b80603460008573ffffffffffffffffffffffffffffffffffffffff1673ffffffffffffffffffffffffffffffffffffffff16815260200190815260200160002060008473ffffffffffffffffffffffffffffffffffffffff1673ffffffffffffffffffffffffffffffffffffffff168152602001908152602001600020819055508173ffffffffffffffffffffffffffffffffffffffff168373ffffffffffffffffffffffffffffffffffffffff167f8c5be1e5ebec7d5bd14f71427d1e84f3dd0314c0f7b2291e5b200ac8c7c3b9258360405161090991906118c0565b60405180910390a3505050565b600061092284846106bc565b90507fffffffffffffffffffffffffffffffffffffffffffffffffffffffffffffffff811461099c578181101561098e576040517f08c379a0000000000000000000000000000000000000000000000000000000008152600401610985906117a0565b60405180910390fd5b61099b848484840361074b565b5b50505050565b600073ffffffffffffffffffffffffffffffffffffffff168373ffffffffffffffffffffffffffffffffffffffff161415610a12576040517f08c379a0000000000000000000000000000000000000000000000000000000008152600401610a0990611820565b60405180910390fd5b600073ffffffffffffffffffffffffffffffffffffffff168273ffffffffffffffffffffffffffffffffffffffff161415610a82576040517f08c379a0000000000000000000000000000000000000000000000000000000008152600401610a7990611740565b60405180910390fd5b610a8d8383836110ad565b6000603360008573ffffffffffffffffffffffffffffffffffffffff1673ffffffffffffffffffffffffffffffffffffffff16815260200190815260200160002054905081811015610b14576040517f08c379a0000000000000000000000000000000000000000000000000000000008152600401610b0b906117c0565b60405180910390fd5b818103603360008673ffffffffffffffffffffffffffffffffffffffff1673ffffffffffffffffffffffffffffffffffffffff1681526020019081526020016000208190555081603360008573ffffffffffffffffffffffffffffffffffffffff1673ffffffffffffffffffffffffffffffffffffffff1681526020019081526020016000206000828254610ba99190611968565b925050819055508273ffffffffffffffffffffffffffffffffffffffff168473ffffffffffffffffffffffffffffffffffffffff167fddf252ad1be2c89b69c2b068fc378daa952ba7f163c4a11628f55a4df523b3ef84604051610c0d91906118c0565b60405180910390a3610c208484846110b2565b50505050565b600073ffffffffffffffffffffffffffffffffffffffff168273ffffffffffffffffffffffffffffffffffffffff161415610c96576040517f08c379a0000000000000000000000000000000000000000000000000000000008152600401610c8d906118a0565b60405180910390fd5b610ca2600083836110ad565b8060356000828254610cb49190611968565b9250508190555080603360008473ffffffffffffffffffffffffffffffffffffffff1673ffffffffffffffffffffffffffffffffffffffff1681526020019081526020016000206000828254610d0a9190611968565b925050819055508173ffffffffffffffffffffffffffffffffffffffff16600073ffffffffffffffffffffffffffffffffffffffff167fddf252ad1be2c89b69c2b068fc378daa952ba7f163c4a11628f55a4df523b3ef83604051610d6f91906118c0565b60405180910390a3610d83600083836110b2565b5050565b600073ffffffffffffffffffffffffffffffffffffffff168273ffffffffffffffffffffffffffffffffffffffff161415610df7576040517f08c379a0000000000000000000000000000000000000000000000000000000008152600401610dee90611800565b60405180910390fd5b610e03826000836110ad565b6000603360008473ffffffffffffffffffffffffffffffffffffffff1673ffffffffffffffffffffffffffffffffffffffff16815260200190815260200160002054905081811015610e8a576040517f08c379a0000000000000000000000000000000000000000000000000000000008152600401610e8190611760565b60405180910390fd5b818103603360008573ffffffffffffffffffffffffffffffffffffffff1673ffffffffffffffffffffffffffffffffffffffff168152602001908152602001600020819055508160356000828254610ee291906119be565b92505081905550600073ffffffffffffffffffffffffffffffffffffffff168373ffffffffffffffffffffffffffffffffffffffff167fddf252ad1be2c89b69c2b068fc378daa952ba7f163c4a11628f55a4df523b3ef84604051610f4791906118c0565b60405180910390a3610f5b836000846110b2565b505050565b60008060019054906101000a900460ff1615610fd75760018260ff16148015610f8f5750610f8d306110b7565b155b610fce576040517f08c379a0000000000000000000000000000000000000000000000000000000008152600401610fc5906117e0565b60405180910390fd5b6000905061104b565b8160ff1660008054906101000a900460ff1660ff161061102c576040517f08c379a0000000000000000000000000000000000000000000000000000000008152600401611023906117e0565b60405180910390fd5b816000806101000a81548160ff021916908360ff160217905550600190505b919050565b600060019054906101000a900460ff1661109f576040517f08c379a000000000000000000000000000000000000000000000000000000000815260040161109690611860565b60405180910390fd5b6110a982826110da565b5050565b505050565b505050565b6000808273ffffffffffffffffffffffffffffffffffffffff163b119050919050565b600060019054906101000a900460ff16611129576040517f08c379a000000000000000000000000000000000000000000000000000000000815260040161112090611860565b60405180910390fd5b6111338282611137565b5050565b600060019054906101000a900460ff16611186576040517f08c379a000000000000000000000000000000000000000000000000000000000815260040161117d90611860565b60405180910390fd5b6111908282611194565b5050565b600060019054906101000a900460ff166111e3576040517f08c379a00000000000000000000000000000000000000000000000000000000081526004016111da90611860565b60405180910390fd5b81603690805190602001906111f9929190611215565b508060379080519060200190611210929190611215565b505050565b82805461122190611a9b565b90600052602060002090601f016020900481019282611243576000855561128a565b82601f1061125c57805160ff191683800117855561128a565b8280016001018555821561128a579182015b8281111561128957825182559160200191906001019061126e565b5b509050611297919061129b565b5090565b5b808211156112b457600081600090555060010161129c565b5090565b60006112cb6112c68461191b565b6118f6565b9050828152602081018484840111156112e357600080fd5b6112ee848285611a59565b509392505050565b60008135905061130581611f04565b92915050565b600082601f83011261131c57600080fd5b813561132c8482602086016112b8565b91505092915050565b60008135905061134481611f1b565b92915050565b60006020828403121561135c57600080fd5b600061136a848285016112f6565b91505092915050565b6000806040838503121561138657600080fd5b6000611394858286016112f6565b92505060206113a5858286016112f6565b9150509250929050565b6000806000606084860312156113c457600080fd5b60006113d2868287016112f6565b93505060206113e3868287016112f6565b92505060406113f486828701611335565b9150509250925092565b6000806040838503121561141157600080fd5b600061141f858286016112f6565b925050602061143085828601611335565b9150509250929050565b6000806040838503121561144d57600080fd5b600083013567ffffffffffffffff81111561146757600080fd5b6114738582860161130b565b925050602083013567ffffffffffffffff81111561149057600080fd5b61149c8582860161130b565b9150509250929050565b6000602082840312156114b857600080fd5b60006114c684828501611335565b91505092915050565b6114d881611a04565b82525050565b6114e781611a47565b82525050565b60006114f88261194c565b6115028185611957565b9350611512818560208601611a68565b61151b81611b8b565b840191505092915050565b6000611533602383611957565b915061153e82611b9c565b604082019050919050565b6000611556602283611957565b915061156182611beb565b604082019050919050565b6000611579602283611957565b915061158482611c3a565b604082019050919050565b600061159c601d83611957565b91506115a782611c89565b602082019050919050565b60006115bf602683611957565b91506115ca82611cb2565b604082019050919050565b60006115e2602e83611957565b91506115ed82611d01565b604082019050919050565b6000611605602183611957565b915061161082611d50565b604082019050919050565b6000611628602583611957565b915061163382611d9f565b604082019050919050565b600061164b602483611957565b915061165682611dee565b604082019050919050565b600061166e602b83611957565b915061167982611e3d565b604082019050919050565b6000611691602583611957565b915061169c82611e8c565b604082019050919050565b60006116b4601f83611957565b91506116bf82611edb565b602082019050919050565b6116d381611a30565b82525050565b6116e281611a3a565b82525050565b60006020820190506116fd60008301846114cf565b92915050565b600060208201905061171860008301846114de565b92915050565b6000602082019050818103600083015261173881846114ed565b905092915050565b6000602082019050818103600083015261175981611526565b9050919050565b6000602082019050818103600083015261177981611549565b9050919050565b600060208201905081810360008301526117998161156c565b9050919050565b600060208201905081810360008301526117b98161158f565b9050919050565b600060208201905081810360008301526117d9816115b2565b9050919050565b600060208201905081810360008301526117f9816115d5565b9050919050565b60006020820190508181036000830152611819816115f8565b9050919050565b600060208201905081810360008301526118398161161b565b9050919050565b600060208201905081810360008301526118598161163e565b9050919050565b6000602082019050818103600083015261187981611661565b9050919050565b6000602082019050818103600083015261189981611684565b9050919050565b600060208201905081810360008301526118b9816116a7565b9050919050565b60006020820190506118d560008301846116ca565b92915050565b60006020820190506118f060008301846116d9565b92915050565b6000611900611911565b905061190c8282611acd565b919050565b6000604051905090565b600067ffffffffffffffff82111561193657611935611b5c565b5b61193f82611b8b565b9050602081019050919050565b600081519050919050565b600082825260208201905092915050565b600061197382611a30565b915061197e83611a30565b9250827fffffffffffffffffffffffffffffffffffffffffffffffffffffffffffffffff038211156119b3576119b2611afe565b5b828201905092915050565b60006119c982611a30565b91506119d483611a30565b9250828210156119e7576119e6611afe565b5b828203905092915050565b60006119fd82611a10565b9050919050565b60008115159050919050565b600073ffffffffffffffffffffffffffffffffffffffff82169050919050565b6000819050919050565b600060ff82169050919050565b6000611a5282611a3a565b9050919050565b82818337600083830152505050565b60005b83811015611a86578082015181840152602081019050611a6b565b83811115611a95576000848401525b50505050565b60006002820490506001821680611ab357607f821691505b60208210811415611ac757611ac6611b2d565b5b50919050565b611ad682611b8b565b810181811067ffffffffffffffff82111715611af557611af4611b5c565b5b80604052505050565b7f4e487b7100000000000000000000000000000000000000000000000000000000600052601160045260246000fd5b7f4e487b7100000000000000000000000000000000000000000000000000000000600052602260045260246000fd5b7f4e487b7100000000000000000000000000000000000000000000000000000000600052604160045260246000fd5b6000601f19601f8301169050919050565b7f45524332303a207472616e7366657220746f20746865207a65726f206164647260008201527f6573730000000000000000000000000000000000000000000000000000000000602082015250565b7f45524332303a206275726e20616d6f756e7420657863656564732062616c616e60008201527f6365000000000000000000000000000000000000000000000000000000000000602082015250565b7f45524332303a20617070726f766520746f20746865207a65726f20616464726560008201527f7373000000000000000000000000000000000000000000000000000000000000602082015250565b7f45524332303a20696e73756666696369656e7420616c6c6f77616e6365000000600082015250565b7f45524332303a207472616e7366657220616d6f756e742065786365656473206260008201527f616c616e63650000000000000000000000000000000000000000000000000000602082015250565b7f496e697469616c697a61626c653a20636f6e747261637420697320616c72656160008201527f647920696e697469616c697a6564000000000000000000000000000000000000602082015250565b7f45524332303a206275726e2066726f6d20746865207a65726f2061646472657360008201527f7300000000000000000000000000000000000000000000000000000000000000602082015250565b7f45524332303a207472616e736665722066726f6d20746865207a65726f20616460008201527f6472657373000000000000000000000000000000000000000000000000000000602082015250565b7f45524332303a20617070726f76652066726f6d20746865207a65726f2061646460008201527f7265737300000000000000000000000000000000000000000000000000000000602082015250565b7f496e697469616c697a61626c653a20636f6e7472616374206973206e6f74206960008201527f6e697469616c697a696e67000000000000000000000000000000000000000000602082015250565b7f45524332303a2064656372656173656420616c6c6f77616e63652062656c6f7760008201527f207a65726f000000000000000000000000000000000000000000000000000000602082015250565b7f45524332303a206d696e7420746f20746865207a65726f206164647265737300600082015250565b611f0d816119f2565b8114611f1857600080fd5b50565b611f2481611a30565b8114611f2f57600080fd5b5056fea2646970667358221220c68575e1ec65d21ac8b439edf3280a97485fef87f40660b679c48ee43db1be1864736f6c63430008040033",
  "linkReferences": {},
  "deployedLinkReferences": {}
}