{
  "_format": "hh-sol-artifact-1",
  "contractName": "MockERC1155",
  "sourceName": "contracts/MockERC1155.sol",
  "abi": [
    {
      "inputs": [],
      "stateMutability": "nonpayable",
      "type": "constructor"
    },
    {
      "anonymous": false,
      "inputs": [
        {
          "indexed": true,
          "internalType": "address",
          "name": "account",
          "type": "address"
        },
        {
          "indexed": true,
          "internalType": "address",
          "name": "operator",
          "type": "address"
        },
        {
          "indexed": false,
          "internalType": "bool",
          "name": "approved",
          "type": "bool"
        }
      ],
      "name": "ApprovalForAll",
      "type": "event"
    },
    {
      "anonymous": false,
      "inputs": [
        {
          "indexed": true,
          "internalType": "address",
          "name": "operator",
          "type": "address"
        },
        {
          "indexed": true,
          "internalType": "address",
          "name": "from",
          "type": "address"
        },
        {
          "indexed": true,
          "internalType": "address",
          "name": "to",
          "type": "address"
        },
        {
          "indexed": false,
          "internalType": "uint256[]",
          "name": "ids",
          "type": "uint256[]"
        },
        {
          "indexed": false,
          "internalType": "uint256[]",
          "name": "values",
          "type": "uint256[]"
        }
      ],
      "name": "TransferBatch",
      "type": "event"
    },
    {
      "anonymous": false,
      "inputs": [
        {
          "indexed": true,
          "internalType": "address",
          "name": "operator",
          "type": "address"
        },
        {
          "indexed": true,
          "internalType": "address",
          "name": "from",
          "type": "address"
        },
        {
          "indexed": true,
          "internalType": "address",
          "name": "to",
          "type": "address"
        },
        {
          "indexed": false,
          "internalType": "uint256",
          "name": "id",
          "type": "uint256"
        },
        {
          "indexed": false,
          "internalType": "uint256",
          "name": "value",
          "type": "uint256"
        }
      ],
      "name": "TransferSingle",
      "type": "event"
    },
    {
      "anonymous": false,
      "inputs": [
        {
          "indexed": false,
          "internalType": "string",
          "name": "value",
          "type": "string"
        },
        {
          "indexed": true,
          "internalType": "uint256",
          "name": "id",
          "type": "uint256"
        }
      ],
      "name": "URI",
      "type": "event"
    },
    {
      "inputs": [
        {
          "internalType": "address",
          "name": "account",
          "type": "address"
        },
        {
          "internalType": "uint256",
          "name": "id",
          "type": "uint256"
        }
      ],
      "name": "balanceOf",
      "outputs": [
        {
          "internalType": "uint256",
          "name": "",
          "type": "uint256"
        }
      ],
      "stateMutability": "view",
      "type": "function"
    },
    {
      "inputs": [
        {
          "internalType": "address[]",
          "name": "accounts",
          "type": "address[]"
        },
        {
          "internalType": "uint256[]",
          "name": "ids",
          "type": "uint256[]"
        }
      ],
      "name": "balanceOfBatch",
      "outputs": [
        {
          "internalType": "uint256[]",
          "name": "",
          "type": "uint256[]"
        }
      ],
      "stateMutability": "view",
      "type": "function"
    },
    {
      "inputs": [
        {
          "internalType": "uint256",
          "name": "_tokenId",
          "type": "uint256"
        },
        {
          "internalType": "uint256",
          "name": "_amount",
          "type": "uint256"
        }
      ],
      "name": "burn",
      "outputs": [],
      "stateMutability": "nonpayable",
      "type": "function"
    },
    {
      "inputs": [
        {
          "internalType": "address",
          "name": "account",
          "type": "address"
        },
        {
          "internalType": "address",
          "name": "operator",
          "type": "address"
        }
      ],
      "name": "isApprovedForAll",
      "outputs": [
        {
          "internalType": "bool",
          "name": "",
          "type": "bool"
        }
      ],
      "stateMutability": "view",
      "type": "function"
    },
    {
      "inputs": [
        {
          "internalType": "address",
          "name": "_to",
          "type": "address"
        },
        {
          "internalType": "uint256",
          "name": "_tokenId",
          "type": "uint256"
        },
        {
          "internalType": "uint256",
          "name": "_amount",
          "type": "uint256"
        }
      ],
      "name": "mint",
      "outputs": [],
      "stateMutability": "nonpayable",
      "type": "function"
    },
    {
      "inputs": [],
      "name": "name",
      "outputs": [
        {
          "internalType": "string",
          "name": "",
          "type": "string"
        }
      ],
      "stateMutability": "view",
      "type": "function"
    },
    {
      "inputs": [
        {
          "internalType": "address",
          "name": "from",
          "type": "address"
        },
        {
          "internalType": "address",
          "name": "to",
          "type": "address"
        },
        {
          "internalType": "uint256[]",
          "name": "ids",
          "type": "uint256[]"
        },
        {
          "internalType": "uint256[]",
          "name": "amounts",
          "type": "uint256[]"
        },
        {
          "internalType": "bytes",
          "name": "data",
          "type": "bytes"
        }
      ],
      "name": "safeBatchTransferFrom",
      "outputs": [],
      "stateMutability": "nonpayable",
      "type": "function"
    },
    {
      "inputs": [
        {
          "internalType": "address",
          "name": "from",
          "type": "address"
        },
        {
          "internalType": "address",
          "name": "to",
          "type": "address"
        },
        {
          "internalType": "uint256",
          "name": "id",
          "type": "uint256"
        },
        {
          "internalType": "uint256",
          "name": "amount",
          "type": "uint256"
        },
        {
          "internalType": "bytes",
          "name": "data",
          "type": "bytes"
        }
      ],
      "name": "safeTransferFrom",
      "outputs": [],
      "stateMutability": "nonpayable",
      "type": "function"
    },
    {
      "inputs": [
        {
          "internalType": "address",
          "name": "operator",
          "type": "address"
        },
        {
          "internalType": "bool",
          "name": "approved",
          "type": "bool"
        }
      ],
      "name": "setApprovalForAll",
      "outputs": [],
      "stateMutability": "nonpayable",
      "type": "function"
    },
    {
      "inputs": [
        {
          "internalType": "bytes4",
          "name": "interfaceId",
          "type": "bytes4"
        }
      ],
      "name": "supportsInterface",
      "outputs": [
        {
          "internalType": "bool",
          "name": "",
          "type": "bool"
        }
      ],
      "stateMutability": "view",
      "type": "function"
    },
    {
      "inputs": [],
      "name": "symbol",
      "outputs": [
        {
          "internalType": "string",
          "name": "",
          "type": "string"
        }
      ],
      "stateMutability": "view",
      "type": "function"
    },
    {
      "inputs": [
        {
          "internalType": "uint256",
          "name": "",
          "type": "uint256"
        }
      ],
      "name": "uri",
      "outputs": [
        {
          "internalType": "string",
          "name": "",
          "type": "string"
        }
      ],
      "stateMutability": "view",
      "type": "function"
    }
  ],
  "bytecode": "0x60806040526040518060400160405280600b81526020017f4d6f636b45524331313535000000000000000000000000000000000000000000815250600390805190602001906200005192919062000118565b506040518060400160405280600481526020017f4d4f434b00000000000000000000000000000000000000000000000000000000815250600490805190602001906200009f92919062000118565b50348015620000ad57600080fd5b506040518060400160405280601281526020017f68747470733a2f2f676f6f676c652e636f6d0000000000000000000000000000815250620000f581620000fc60201b60201c565b506200022d565b80600290805190602001906200011492919062000118565b5050565b8280546200012690620001c8565b90600052602060002090601f0160209004810192826200014a576000855562000196565b82601f106200016557805160ff191683800117855562000196565b8280016001018555821562000196579182015b828111156200019557825182559160200191906001019062000178565b5b509050620001a59190620001a9565b5090565b5b80821115620001c4576000816000905550600101620001aa565b5090565b60006002820490506001821680620001e157607f821691505b60208210811415620001f857620001f7620001fe565b5b50919050565b7f4e487b7100000000000000000000000000000000000000000000000000000000600052602260045260246000fd5b612f09806200023d6000396000f3fe608060405234801561001057600080fd5b50600436106100b35760003560e01c80634e1273f4116100715780634e1273f41461019e57806395d89b41146101ce578063a22cb465146101ec578063b390c0ab14610208578063e985e9c514610224578063f242432a14610254576100b3565b8062fdd58e146100b857806301ffc9a7146100e857806306fdde03146101185780630e89341c14610136578063156e29f6146101665780632eb2c2d614610182575b600080fd5b6100d260048036038101906100cd9190611e65565b610270565b6040516100df91906125f6565b60405180910390f35b61010260048036038101906100fd9190611f5c565b610339565b60405161010f9190612419565b60405180910390f35b61012061041b565b60405161012d9190612434565b60405180910390f35b610150600480360381019061014b9190611fae565b6104ad565b60405161015d9190612434565b60405180910390f35b610180600480360381019061017b9190611ea1565b610541565b005b61019c60048036038101906101979190611cdb565b6105b5565b005b6101b860048036038101906101b39190611ef0565b610656565b6040516101c591906123c0565b60405180910390f35b6101d6610807565b6040516101e39190612434565b60405180910390f35b61020660048036038101906102019190611e29565b610899565b005b610222600480360381019061021d9190611fd7565b6108af565b005b61023e60048036038101906102399190611c9f565b6108c5565b60405161024b9190612419565b60405180910390f35b61026e60048036038101906102699190611d9a565b610959565b005b60008073ffffffffffffffffffffffffffffffffffffffff168373ffffffffffffffffffffffffffffffffffffffff1614156102e1576040517f08c379a00000000000000000000000000000000000000000000000000000000081526004016102d890612496565b60405180910390fd5b60008083815260200190815260200160002060008473ffffffffffffffffffffffffffffffffffffffff1673ffffffffffffffffffffffffffffffffffffffff16815260200190815260200160002054905092915050565b60007fd9b67a26000000000000000000000000000000000000000000000000000000007bffffffffffffffffffffffffffffffffffffffffffffffffffffffff1916827bffffffffffffffffffffffffffffffffffffffffffffffffffffffff1916148061040457507f0e89341c000000000000000000000000000000000000000000000000000000007bffffffffffffffffffffffffffffffffffffffffffffffffffffffff1916827bffffffffffffffffffffffffffffffffffffffffffffffffffffffff1916145b806104145750610413826109fa565b5b9050919050565b60606003805461042a90612865565b80601f016020809104026020016040519081016040528092919081815260200182805461045690612865565b80156104a35780601f10610478576101008083540402835291602001916104a3565b820191906000526020600020905b81548152906001019060200180831161048657829003601f168201915b5050505050905090565b6060600280546104bc90612865565b80601f01602080910402602001604051908101604052809291908181526020018280546104e890612865565b80156105355780601f1061050a57610100808354040283529160200191610535565b820191906000526020600020905b81548152906001019060200180831161051857829003601f168201915b50505050509050919050565b600073ffffffffffffffffffffffffffffffffffffffff168373ffffffffffffffffffffffffffffffffffffffff16141561057b57600080fd5b6000821161058857600080fd5b6000811161059557600080fd5b6105b083838360405180602001604052806000815250610a64565b505050565b6105bd610c15565b73ffffffffffffffffffffffffffffffffffffffff168573ffffffffffffffffffffffffffffffffffffffff1614806106035750610602856105fd610c15565b6108c5565b5b610642576040517f08c379a000000000000000000000000000000000000000000000000000000000815260040161063990612516565b60405180910390fd5b61064f8585858585610c1d565b5050505050565b6060815183511461069c576040517f08c379a000000000000000000000000000000000000000000000000000000000815260040161069390612596565b60405180910390fd5b6000835167ffffffffffffffff8111156106df577f4e487b7100000000000000000000000000000000000000000000000000000000600052604160045260246000fd5b60405190808252806020026020018201604052801561070d5781602001602082028036833780820191505090505b50905060005b84518110156107fc576107a6858281518110610758577f4e487b7100000000000000000000000000000000000000000000000000000000600052603260045260246000fd5b6020026020010151858381518110610799577f4e487b7100000000000000000000000000000000000000000000000000000000600052603260045260246000fd5b6020026020010151610270565b8282815181106107df577f4e487b7100000000000000000000000000000000000000000000000000000000600052603260045260246000fd5b602002602001018181525050806107f5906128c8565b9050610713565b508091505092915050565b60606004805461081690612865565b80601f016020809104026020016040519081016040528092919081815260200182805461084290612865565b801561088f5780601f106108645761010080835404028352916020019161088f565b820191906000526020600020905b81548152906001019060200180831161087257829003601f168201915b5050505050905090565b6108ab6108a4610c15565b8383610f8b565b5050565b6108c16108ba610c15565b83836110f8565b5050565b6000600160008473ffffffffffffffffffffffffffffffffffffffff1673ffffffffffffffffffffffffffffffffffffffff16815260200190815260200160002060008373ffffffffffffffffffffffffffffffffffffffff1673ffffffffffffffffffffffffffffffffffffffff16815260200190815260200160002060009054906101000a900460ff16905092915050565b610961610c15565b73ffffffffffffffffffffffffffffffffffffffff168573ffffffffffffffffffffffffffffffffffffffff1614806109a757506109a6856109a1610c15565b6108c5565b5b6109e6576040517f08c379a00000000000000000000000000000000000000000000000000000000081526004016109dd906124d6565b60405180910390fd5b6109f3858585858561133f565b5050505050565b60007f01ffc9a7000000000000000000000000000000000000000000000000000000007bffffffffffffffffffffffffffffffffffffffffffffffffffffffff1916827bffffffffffffffffffffffffffffffffffffffffffffffffffffffff1916149050919050565b600073ffffffffffffffffffffffffffffffffffffffff168473ffffffffffffffffffffffffffffffffffffffff161415610ad4576040517f08c379a0000000000000000000000000000000000000000000000000000000008152600401610acb906125d6565b60405180910390fd5b6000610ade610c15565b90506000610aeb856115db565b90506000610af8856115db565b9050610b09836000898585896116a1565b8460008088815260200190815260200160002060008973ffffffffffffffffffffffffffffffffffffffff1673ffffffffffffffffffffffffffffffffffffffff1681526020019081526020016000206000828254610b689190612759565b925050819055508673ffffffffffffffffffffffffffffffffffffffff16600073ffffffffffffffffffffffffffffffffffffffff168473ffffffffffffffffffffffffffffffffffffffff167fc3d58168c5ae7397731d063d5bbf3d657854427343f4c083240f7aacaa2d0f628989604051610be6929190612611565b60405180910390a4610bfd836000898585896116a9565b610c0c836000898989896116b1565b50505050505050565b600033905090565b8151835114610c61576040517f08c379a0000000000000000000000000000000000000000000000000000000008152600401610c58906125b6565b60405180910390fd5b600073ffffffffffffffffffffffffffffffffffffffff168473ffffffffffffffffffffffffffffffffffffffff161415610cd1576040517f08c379a0000000000000000000000000000000000000000000000000000000008152600401610cc8906124f6565b60405180910390fd5b6000610cdb610c15565b9050610ceb8187878787876116a1565b60005b8451811015610ee8576000858281518110610d32577f4e487b7100000000000000000000000000000000000000000000000000000000600052603260045260246000fd5b602002602001015190506000858381518110610d77577f4e487b7100000000000000000000000000000000000000000000000000000000600052603260045260246000fd5b60200260200101519050600080600084815260200190815260200160002060008b73ffffffffffffffffffffffffffffffffffffffff1673ffffffffffffffffffffffffffffffffffffffff16815260200190815260200160002054905081811015610e18576040517f08c379a0000000000000000000000000000000000000000000000000000000008152600401610e0f90612556565b60405180910390fd5b81810360008085815260200190815260200160002060008c73ffffffffffffffffffffffffffffffffffffffff1673ffffffffffffffffffffffffffffffffffffffff168152602001908152602001600020819055508160008085815260200190815260200160002060008b73ffffffffffffffffffffffffffffffffffffffff1673ffffffffffffffffffffffffffffffffffffffff1681526020019081526020016000206000828254610ecd9190612759565b9250508190555050505080610ee1906128c8565b9050610cee565b508473ffffffffffffffffffffffffffffffffffffffff168673ffffffffffffffffffffffffffffffffffffffff168273ffffffffffffffffffffffffffffffffffffffff167f4a39dc06d4c0dbc64b70af90fd698a233a518aa5d07e595d983b8c0526c8f7fb8787604051610f5f9291906123e2565b60405180910390a4610f758187878787876116a9565b610f83818787878787611898565b505050505050565b8173ffffffffffffffffffffffffffffffffffffffff168373ffffffffffffffffffffffffffffffffffffffff161415610ffa576040517f08c379a0000000000000000000000000000000000000000000000000000000008152600401610ff190612576565b60405180910390fd5b80600160008573ffffffffffffffffffffffffffffffffffffffff1673ffffffffffffffffffffffffffffffffffffffff16815260200190815260200160002060008473ffffffffffffffffffffffffffffffffffffffff1673ffffffffffffffffffffffffffffffffffffffff16815260200190815260200160002060006101000a81548160ff0219169083151502179055508173ffffffffffffffffffffffffffffffffffffffff168373ffffffffffffffffffffffffffffffffffffffff167f17307eab39ab6107e8899845ad3d59bd9653f200f220920489ca2b5937696c31836040516110eb9190612419565b60405180910390a3505050565b600073ffffffffffffffffffffffffffffffffffffffff168373ffffffffffffffffffffffffffffffffffffffff161415611168576040517f08c379a000000000000000000000000000000000000000000000000000000000815260040161115f90612536565b60405180910390fd5b6000611172610c15565b9050600061117f846115db565b9050600061118c846115db565b90506111ac838760008585604051806020016040528060008152506116a1565b600080600087815260200190815260200160002060008873ffffffffffffffffffffffffffffffffffffffff1673ffffffffffffffffffffffffffffffffffffffff16815260200190815260200160002054905084811015611243576040517f08c379a000000000000000000000000000000000000000000000000000000000815260040161123a906124b6565b60405180910390fd5b84810360008088815260200190815260200160002060008973ffffffffffffffffffffffffffffffffffffffff1673ffffffffffffffffffffffffffffffffffffffff16815260200190815260200160002081905550600073ffffffffffffffffffffffffffffffffffffffff168773ffffffffffffffffffffffffffffffffffffffff168573ffffffffffffffffffffffffffffffffffffffff167fc3d58168c5ae7397731d063d5bbf3d657854427343f4c083240f7aacaa2d0f628989604051611310929190612611565b60405180910390a4611336848860008686604051806020016040528060008152506116a9565b50505050505050565b600073ffffffffffffffffffffffffffffffffffffffff168473ffffffffffffffffffffffffffffffffffffffff1614156113af576040517f08c379a00000000000000000000000000000000000000000000000000000000081526004016113a6906124f6565b60405180910390fd5b60006113b9610c15565b905060006113c6856115db565b905060006113d3856115db565b90506113e38389898585896116a1565b600080600088815260200190815260200160002060008a73ffffffffffffffffffffffffffffffffffffffff1673ffffffffffffffffffffffffffffffffffffffff1681526020019081526020016000205490508581101561147a576040517f08c379a000000000000000000000000000000000000000000000000000000000815260040161147190612556565b60405180910390fd5b85810360008089815260200190815260200160002060008b73ffffffffffffffffffffffffffffffffffffffff1673ffffffffffffffffffffffffffffffffffffffff168152602001908152602001600020819055508560008089815260200190815260200160002060008a73ffffffffffffffffffffffffffffffffffffffff1673ffffffffffffffffffffffffffffffffffffffff168152602001908152602001600020600082825461152f9190612759565b925050819055508773ffffffffffffffffffffffffffffffffffffffff168973ffffffffffffffffffffffffffffffffffffffff168573ffffffffffffffffffffffffffffffffffffffff167fc3d58168c5ae7397731d063d5bbf3d657854427343f4c083240f7aacaa2d0f628a8a6040516115ac929190612611565b60405180910390a46115c2848a8a86868a6116a9565b6115d0848a8a8a8a8a6116b1565b505050505050505050565b60606000600167ffffffffffffffff811115611620577f4e487b7100000000000000000000000000000000000000000000000000000000600052604160045260246000fd5b60405190808252806020026020018201604052801561164e5781602001602082028036833780820191505090505b509050828160008151811061168c577f4e487b7100000000000000000000000000000000000000000000000000000000600052603260045260246000fd5b60200260200101818152505080915050919050565b505050505050565b505050505050565b6116d08473ffffffffffffffffffffffffffffffffffffffff16611a7f565b15611890578373ffffffffffffffffffffffffffffffffffffffff1663f23a6e6187878686866040518663ffffffff1660e01b8152600401611716959493929190612366565b602060405180830381600087803b15801561173057600080fd5b505af192505050801561176157506040513d601f19601f8201168201806040525081019061175e9190611f85565b60015b6118075761176d61299e565b806308c379a014156117ca5750611782612de1565b8061178d57506117cc565b806040517f08c379a00000000000000000000000000000000000000000000000000000000081526004016117c19190612434565b60405180910390fd5b505b6040517f08c379a00000000000000000000000000000000000000000000000000000000081526004016117fe90612456565b60405180910390fd5b63f23a6e6160e01b7bffffffffffffffffffffffffffffffffffffffffffffffffffffffff1916817bffffffffffffffffffffffffffffffffffffffffffffffffffffffff19161461188e576040517f08c379a000000000000000000000000000000000000000000000000000000000815260040161188590612476565b60405180910390fd5b505b505050505050565b6118b78473ffffffffffffffffffffffffffffffffffffffff16611a7f565b15611a77578373ffffffffffffffffffffffffffffffffffffffff1663bc197c8187878686866040518663ffffffff1660e01b81526004016118fd9594939291906122fe565b602060405180830381600087803b15801561191757600080fd5b505af192505050801561194857506040513d601f19601f820116820180604052508101906119459190611f85565b60015b6119ee5761195461299e565b806308c379a014156119b15750611969612de1565b8061197457506119b3565b806040517f08c379a00000000000000000000000000000000000000000000000000000000081526004016119a89190612434565b60405180910390fd5b505b6040517f08c379a00000000000000000000000000000000000000000000000000000000081526004016119e590612456565b60405180910390fd5b63bc197c8160e01b7bffffffffffffffffffffffffffffffffffffffffffffffffffffffff1916817bffffffffffffffffffffffffffffffffffffffffffffffffffffffff191614611a75576040517f08c379a0000000000000000000000000000000000000000000000000000000008152600401611a6c90612476565b60405180910390fd5b505b505050505050565b6000808273ffffffffffffffffffffffffffffffffffffffff163b119050919050565b6000611ab5611ab08461265f565b61263a565b90508083825260208201905082856020860282011115611ad457600080fd5b60005b85811015611b045781611aea8882611bb8565b845260208401935060208301925050600181019050611ad7565b5050509392505050565b6000611b21611b1c8461268b565b61263a565b90508083825260208201905082856020860282011115611b4057600080fd5b60005b85811015611b705781611b568882611c8a565b845260208401935060208301925050600181019050611b43565b5050509392505050565b6000611b8d611b88846126b7565b61263a565b905082815260208101848484011115611ba557600080fd5b611bb0848285612823565b509392505050565b600081359050611bc781612e77565b92915050565b600082601f830112611bde57600080fd5b8135611bee848260208601611aa2565b91505092915050565b600082601f830112611c0857600080fd5b8135611c18848260208601611b0e565b91505092915050565b600081359050611c3081612e8e565b92915050565b600081359050611c4581612ea5565b92915050565b600081519050611c5a81612ea5565b92915050565b600082601f830112611c7157600080fd5b8135611c81848260208601611b7a565b91505092915050565b600081359050611c9981612ebc565b92915050565b60008060408385031215611cb257600080fd5b6000611cc085828601611bb8565b9250506020611cd185828601611bb8565b9150509250929050565b600080600080600060a08688031215611cf357600080fd5b6000611d0188828901611bb8565b9550506020611d1288828901611bb8565b945050604086013567ffffffffffffffff811115611d2f57600080fd5b611d3b88828901611bf7565b935050606086013567ffffffffffffffff811115611d5857600080fd5b611d6488828901611bf7565b925050608086013567ffffffffffffffff811115611d8157600080fd5b611d8d88828901611c60565b9150509295509295909350565b600080600080600060a08688031215611db257600080fd5b6000611dc088828901611bb8565b9550506020611dd188828901611bb8565b9450506040611de288828901611c8a565b9350506060611df388828901611c8a565b925050608086013567ffffffffffffffff811115611e1057600080fd5b611e1c88828901611c60565b9150509295509295909350565b60008060408385031215611e3c57600080fd5b6000611e4a85828601611bb8565b9250506020611e5b85828601611c21565b9150509250929050565b60008060408385031215611e7857600080fd5b6000611e8685828601611bb8565b9250506020611e9785828601611c8a565b9150509250929050565b600080600060608486031215611eb657600080fd5b6000611ec486828701611bb8565b9350506020611ed586828701611c8a565b9250506040611ee686828701611c8a565b9150509250925092565b60008060408385031215611f0357600080fd5b600083013567ffffffffffffffff811115611f1d57600080fd5b611f2985828601611bcd565b925050602083013567ffffffffffffffff811115611f4657600080fd5b611f5285828601611bf7565b9150509250929050565b600060208284031215611f6e57600080fd5b6000611f7c84828501611c36565b91505092915050565b600060208284031215611f9757600080fd5b6000611fa584828501611c4b565b91505092915050565b600060208284031215611fc057600080fd5b6000611fce84828501611c8a565b91505092915050565b60008060408385031215611fea57600080fd5b6000611ff885828601611c8a565b925050602061200985828601611c8a565b9150509250929050565b600061201f83836122e0565b60208301905092915050565b612034816127af565b82525050565b6000612045826126f8565b61204f8185612726565b935061205a836126e8565b8060005b8381101561208b5781516120728882612013565b975061207d83612719565b92505060018101905061205e565b5085935050505092915050565b6120a1816127c1565b82525050565b60006120b282612703565b6120bc8185612737565b93506120cc818560208601612832565b6120d5816129c0565b840191505092915050565b60006120eb8261270e565b6120f58185612748565b9350612105818560208601612832565b61210e816129c0565b840191505092915050565b6000612126603483612748565b9150612131826129de565b604082019050919050565b6000612149602883612748565b915061215482612a2d565b604082019050919050565b600061216c602b83612748565b915061217782612a7c565b604082019050919050565b600061218f602483612748565b915061219a82612acb565b604082019050919050565b60006121b2602983612748565b91506121bd82612b1a565b604082019050919050565b60006121d5602583612748565b91506121e082612b69565b604082019050919050565b60006121f8603283612748565b915061220382612bb8565b604082019050919050565b600061221b602383612748565b915061222682612c07565b604082019050919050565b600061223e602a83612748565b915061224982612c56565b604082019050919050565b6000612261602983612748565b915061226c82612ca5565b604082019050919050565b6000612284602983612748565b915061228f82612cf4565b604082019050919050565b60006122a7602883612748565b91506122b282612d43565b604082019050919050565b60006122ca602183612748565b91506122d582612d92565b604082019050919050565b6122e981612819565b82525050565b6122f881612819565b82525050565b600060a082019050612313600083018861202b565b612320602083018761202b565b8181036040830152612332818661203a565b90508181036060830152612346818561203a565b9050818103608083015261235a81846120a7565b90509695505050505050565b600060a08201905061237b600083018861202b565b612388602083018761202b565b61239560408301866122ef565b6123a260608301856122ef565b81810360808301526123b481846120a7565b90509695505050505050565b600060208201905081810360008301526123da818461203a565b905092915050565b600060408201905081810360008301526123fc818561203a565b90508181036020830152612410818461203a565b90509392505050565b600060208201905061242e6000830184612098565b92915050565b6000602082019050818103600083015261244e81846120e0565b905092915050565b6000602082019050818103600083015261246f81612119565b9050919050565b6000602082019050818103600083015261248f8161213c565b9050919050565b600060208201905081810360008301526124af8161215f565b9050919050565b600060208201905081810360008301526124cf81612182565b9050919050565b600060208201905081810360008301526124ef816121a5565b9050919050565b6000602082019050818103600083015261250f816121c8565b9050919050565b6000602082019050818103600083015261252f816121eb565b9050919050565b6000602082019050818103600083015261254f8161220e565b9050919050565b6000602082019050818103600083015261256f81612231565b9050919050565b6000602082019050818103600083015261258f81612254565b9050919050565b600060208201905081810360008301526125af81612277565b9050919050565b600060208201905081810360008301526125cf8161229a565b9050919050565b600060208201905081810360008301526125ef816122bd565b9050919050565b600060208201905061260b60008301846122ef565b92915050565b600060408201905061262660008301856122ef565b61263360208301846122ef565b9392505050565b6000612644612655565b90506126508282612897565b919050565b6000604051905090565b600067ffffffffffffffff82111561267a5761267961296f565b5b602082029050602081019050919050565b600067ffffffffffffffff8211156126a6576126a561296f565b5b602082029050602081019050919050565b600067ffffffffffffffff8211156126d2576126d161296f565b5b6126db826129c0565b9050602081019050919050565b6000819050602082019050919050565b600081519050919050565b600081519050919050565b600081519050919050565b6000602082019050919050565b600082825260208201905092915050565b600082825260208201905092915050565b600082825260208201905092915050565b600061276482612819565b915061276f83612819565b9250827fffffffffffffffffffffffffffffffffffffffffffffffffffffffffffffffff038211156127a4576127a3612911565b5b828201905092915050565b60006127ba826127f9565b9050919050565b60008115159050919050565b60007fffffffff0000000000000000000000000000000000000000000000000000000082169050919050565b600073ffffffffffffffffffffffffffffffffffffffff82169050919050565b6000819050919050565b82818337600083830152505050565b60005b83811015612850578082015181840152602081019050612835565b8381111561285f576000848401525b50505050565b6000600282049050600182168061287d57607f821691505b6020821081141561289157612890612940565b5b50919050565b6128a0826129c0565b810181811067ffffffffffffffff821117156128bf576128be61296f565b5b80604052505050565b60006128d382612819565b91507fffffffffffffffffffffffffffffffffffffffffffffffffffffffffffffffff82141561290657612905612911565b5b600182019050919050565b7f4e487b7100000000000000000000000000000000000000000000000000000000600052601160045260246000fd5b7f4e487b7100000000000000000000000000000000000000000000000000000000600052602260045260246000fd5b7f4e487b7100000000000000000000000000000000000000000000000000000000600052604160045260246000fd5b600060033d11156129bd5760046000803e6129ba6000516129d1565b90505b90565b6000601f19601f8301169050919050565b60008160e01c9050919050565b7f455243313135353a207472616e7366657220746f206e6f6e204552433131353560008201527f526563656976657220696d706c656d656e746572000000000000000000000000602082015250565b7f455243313135353a204552433131353552656365697665722072656a6563746560008201527f6420746f6b656e73000000000000000000000000000000000000000000000000602082015250565b7f455243313135353a2062616c616e636520717565727920666f7220746865207a60008201527f65726f2061646472657373000000000000000000000000000000000000000000602082015250565b7f455243313135353a206275726e20616d6f756e7420657863656564732062616c60008201527f616e636500000000000000000000000000000000000000000000000000000000602082015250565b7f455243313135353a2063616c6c6572206973206e6f74206f776e6572206e6f7260008201527f20617070726f7665640000000000000000000000000000000000000000000000602082015250565b7f455243313135353a207472616e7366657220746f20746865207a65726f20616460008201527f6472657373000000000000000000000000000000000000000000000000000000602082015250565b7f455243313135353a207472616e736665722063616c6c6572206973206e6f742060008201527f6f776e6572206e6f7220617070726f7665640000000000000000000000000000602082015250565b7f455243313135353a206275726e2066726f6d20746865207a65726f206164647260008201527f6573730000000000000000000000000000000000000000000000000000000000602082015250565b7f455243313135353a20696e73756666696369656e742062616c616e636520666f60008201527f72207472616e7366657200000000000000000000000000000000000000000000602082015250565b7f455243313135353a2073657474696e6720617070726f76616c2073746174757360008201527f20666f722073656c660000000000000000000000000000000000000000000000602082015250565b7f455243313135353a206163636f756e747320616e6420696473206c656e67746860008201527f206d69736d617463680000000000000000000000000000000000000000000000602082015250565b7f455243313135353a2069647320616e6420616d6f756e7473206c656e6774682060008201527f6d69736d61746368000000000000000000000000000000000000000000000000602082015250565b7f455243313135353a206d696e7420746f20746865207a65726f2061646472657360008201527f7300000000000000000000000000000000000000000000000000000000000000602082015250565b600060443d1015612df157612e74565b612df9612655565b60043d036004823e80513d602482011167ffffffffffffffff82111715612e21575050612e74565b808201805167ffffffffffffffff811115612e3f5750505050612e74565b80602083010160043d038501811115612e5c575050505050612e74565b612e6b82602001850186612897565b82955050505050505b90565b612e80816127af565b8114612e8b57600080fd5b50565b612e97816127c1565b8114612ea257600080fd5b50565b612eae816127cd565b8114612eb957600080fd5b50565b612ec581612819565b8114612ed057600080fd5b5056fea26469706673582212206016bf5669fe29481b221e9a35bf8e7eefe7f28712299165c2f74ea02aff351164736f6c63430008040033",
  "linkReferences": {},
  "deployedLinkReferences": {}
}