{
  "_format": "hh-sol-artifact-1",
  "contractName": "MockERC1155Upgradeable",
  "sourceName": "contracts/MockERC1155Upgradeable.sol",
  "abi": [
    {
      "anonymous": false,
      "inputs": [
        {
          "indexed": true,
          "internalType": "address",
          "name": "account",
          "type": "address"
        },
        {
          "indexed": true,
          "internalType": "address",
          "name": "operator",
          "type": "address"
        },
        {
          "indexed": false,
          "internalType": "bool",
          "name": "approved",
          "type": "bool"
        }
      ],
      "name": "ApprovalForAll",
      "type": "event"
    },
    {
      "anonymous": false,
      "inputs": [
        {
          "indexed": false,
          "internalType": "uint8",
          "name": "version",
          "type": "uint8"
        }
      ],
      "name": "Initialized",
      "type": "event"
    },
    {
      "anonymous": false,
      "inputs": [
        {
          "indexed": true,
          "internalType": "address",
          "name": "operator",
          "type": "address"
        },
        {
          "indexed": true,
          "internalType": "address",
          "name": "from",
          "type": "address"
        },
        {
          "indexed": true,
          "internalType": "address",
          "name": "to",
          "type": "address"
        },
        {
          "indexed": false,
          "internalType": "uint256[]",
          "name": "ids",
          "type": "uint256[]"
        },
        {
          "indexed": false,
          "internalType": "uint256[]",
          "name": "values",
          "type": "uint256[]"
        }
      ],
      "name": "TransferBatch",
      "type": "event"
    },
    {
      "anonymous": false,
      "inputs": [
        {
          "indexed": true,
          "internalType": "address",
          "name": "operator",
          "type": "address"
        },
        {
          "indexed": true,
          "internalType": "address",
          "name": "from",
          "type": "address"
        },
        {
          "indexed": true,
          "internalType": "address",
          "name": "to",
          "type": "address"
        },
        {
          "indexed": false,
          "internalType": "uint256",
          "name": "id",
          "type": "uint256"
        },
        {
          "indexed": false,
          "internalType": "uint256",
          "name": "value",
          "type": "uint256"
        }
      ],
      "name": "TransferSingle",
      "type": "event"
    },
    {
      "anonymous": false,
      "inputs": [
        {
          "indexed": false,
          "internalType": "string",
          "name": "value",
          "type": "string"
        },
        {
          "indexed": true,
          "internalType": "uint256",
          "name": "id",
          "type": "uint256"
        }
      ],
      "name": "URI",
      "type": "event"
    },
    {
      "inputs": [
        {
          "internalType": "address",
          "name": "account",
          "type": "address"
        },
        {
          "internalType": "uint256",
          "name": "id",
          "type": "uint256"
        }
      ],
      "name": "balanceOf",
      "outputs": [
        {
          "internalType": "uint256",
          "name": "",
          "type": "uint256"
        }
      ],
      "stateMutability": "view",
      "type": "function"
    },
    {
      "inputs": [
        {
          "internalType": "address[]",
          "name": "accounts",
          "type": "address[]"
        },
        {
          "internalType": "uint256[]",
          "name": "ids",
          "type": "uint256[]"
        }
      ],
      "name": "balanceOfBatch",
      "outputs": [
        {
          "internalType": "uint256[]",
          "name": "",
          "type": "uint256[]"
        }
      ],
      "stateMutability": "view",
      "type": "function"
    },
    {
      "inputs": [
        {
          "internalType": "uint256",
          "name": "_tokenId",
          "type": "uint256"
        },
        {
          "internalType": "uint256",
          "name": "_amount",
          "type": "uint256"
        }
      ],
      "name": "burn",
      "outputs": [],
      "stateMutability": "nonpayable",
      "type": "function"
    },
    {
      "inputs": [
        {
          "internalType": "string",
          "name": "name_",
          "type": "string"
        },
        {
          "internalType": "string",
          "name": "symbol_",
          "type": "string"
        },
        {
          "internalType": "string",
          "name": "uri_",
          "type": "string"
        }
      ],
      "name": "initialize",
      "outputs": [],
      "stateMutability": "nonpayable",
      "type": "function"
    },
    {
      "inputs": [
        {
          "internalType": "address",
          "name": "account",
          "type": "address"
        },
        {
          "internalType": "address",
          "name": "operator",
          "type": "address"
        }
      ],
      "name": "isApprovedForAll",
      "outputs": [
        {
          "internalType": "bool",
          "name": "",
          "type": "bool"
        }
      ],
      "stateMutability": "view",
      "type": "function"
    },
    {
      "inputs": [
        {
          "internalType": "address",
          "name": "_to",
          "type": "address"
        },
        {
          "internalType": "uint256",
          "name": "_tokenId",
          "type": "uint256"
        },
        {
          "internalType": "uint256",
          "name": "_amount",
          "type": "uint256"
        }
      ],
      "name": "mint",
      "outputs": [],
      "stateMutability": "nonpayable",
      "type": "function"
    },
    {
      "inputs": [],
      "name": "name",
      "outputs": [
        {
          "internalType": "string",
          "name": "",
          "type": "string"
        }
      ],
      "stateMutability": "view",
      "type": "function"
    },
    {
      "inputs": [
        {
          "internalType": "address",
          "name": "from",
          "type": "address"
        },
        {
          "internalType": "address",
          "name": "to",
          "type": "address"
        },
        {
          "internalType": "uint256[]",
          "name": "ids",
          "type": "uint256[]"
        },
        {
          "internalType": "uint256[]",
          "name": "amounts",
          "type": "uint256[]"
        },
        {
          "internalType": "bytes",
          "name": "data",
          "type": "bytes"
        }
      ],
      "name": "safeBatchTransferFrom",
      "outputs": [],
      "stateMutability": "nonpayable",
      "type": "function"
    },
    {
      "inputs": [
        {
          "internalType": "address",
          "name": "from",
          "type": "address"
        },
        {
          "internalType": "address",
          "name": "to",
          "type": "address"
        },
        {
          "internalType": "uint256",
          "name": "id",
          "type": "uint256"
        },
        {
          "internalType": "uint256",
          "name": "amount",
          "type": "uint256"
        },
        {
          "internalType": "bytes",
          "name": "data",
          "type": "bytes"
        }
      ],
      "name": "safeTransferFrom",
      "outputs": [],
      "stateMutability": "nonpayable",
      "type": "function"
    },
    {
      "inputs": [
        {
          "internalType": "address",
          "name": "operator",
          "type": "address"
        },
        {
          "internalType": "bool",
          "name": "approved",
          "type": "bool"
        }
      ],
      "name": "setApprovalForAll",
      "outputs": [],
      "stateMutability": "nonpayable",
      "type": "function"
    },
    {
      "inputs": [
        {
          "internalType": "bytes4",
          "name": "interfaceId",
          "type": "bytes4"
        }
      ],
      "name": "supportsInterface",
      "outputs": [
        {
          "internalType": "bool",
          "name": "",
          "type": "bool"
        }
      ],
      "stateMutability": "view",
      "type": "function"
    },
    {
      "inputs": [],
      "name": "symbol",
      "outputs": [
        {
          "internalType": "string",
          "name": "",
          "type": "string"
        }
      ],
      "stateMutability": "view",
      "type": "function"
    },
    {
      "inputs": [
        {
          "internalType": "uint256",
          "name": "",
          "type": "uint256"
        }
      ],
      "name": "uri",
      "outputs": [
        {
          "internalType": "string",
          "name": "",
          "type": "string"
        }
      ],
      "stateMutability": "view",
      "type": "function"
    }
  ],
  "bytecode": "0x608060405234801561001057600080fd5b506135ce806100206000396000f3fe608060405234801561001057600080fd5b50600436106100ce5760003560e01c80634e1273f41161008c578063a6487c5311610066578063a6487c5314610223578063b390c0ab1461023f578063e985e9c51461025b578063f242432a1461028b576100ce565b80634e1273f4146101b957806395d89b41146101e9578063a22cb46514610207576100ce565b8062fdd58e146100d357806301ffc9a71461010357806306fdde03146101335780630e89341c14610151578063156e29f6146101815780632eb2c2d61461019d575b600080fd5b6100ed60048036038101906100e891906122f5565b6102a7565b6040516100fa9190612bcd565b60405180910390f35b61011d600480360381019061011891906123ec565b610371565b60405161012a9190612995565b60405180910390f35b61013b610453565b60405161014891906129cb565b60405180910390f35b61016b600480360381019061016691906124d5565b6104e5565b60405161017891906129cb565b60405180910390f35b61019b60048036038101906101969190612331565b610579565b005b6101b760048036038101906101b2919061216b565b6105ed565b005b6101d360048036038101906101ce9190612380565b61068e565b6040516101e0919061293c565b60405180910390f35b6101f161083f565b6040516101fe91906129cb565b60405180910390f35b610221600480360381019061021c91906122b9565b6108d1565b005b61023d6004803603810190610238919061243e565b6108e7565b005b610259600480360381019061025491906124fe565b610981565b005b6102756004803603810190610270919061212f565b610997565b6040516102829190612995565b60405180910390f35b6102a560048036038101906102a0919061222a565b610a2b565b005b60008073ffffffffffffffffffffffffffffffffffffffff168373ffffffffffffffffffffffffffffffffffffffff161415610318576040517f08c379a000000000000000000000000000000000000000000000000000000000815260040161030f90612a2d565b60405180910390fd5b6065600083815260200190815260200160002060008473ffffffffffffffffffffffffffffffffffffffff1673ffffffffffffffffffffffffffffffffffffffff16815260200190815260200160002054905092915050565b60007fd9b67a26000000000000000000000000000000000000000000000000000000007bffffffffffffffffffffffffffffffffffffffffffffffffffffffff1916827bffffffffffffffffffffffffffffffffffffffffffffffffffffffff1916148061043c57507f0e89341c000000000000000000000000000000000000000000000000000000007bffffffffffffffffffffffffffffffffffffffffffffffffffffffff1916827bffffffffffffffffffffffffffffffffffffffffffffffffffffffff1916145b8061044c575061044b82610acc565b5b9050919050565b60606097805461046290612e8c565b80601f016020809104026020016040519081016040528092919081815260200182805461048e90612e8c565b80156104db5780601f106104b0576101008083540402835291602001916104db565b820191906000526020600020905b8154815290600101906020018083116104be57829003601f168201915b5050505050905090565b6060606780546104f490612e8c565b80601f016020809104026020016040519081016040528092919081815260200182805461052090612e8c565b801561056d5780601f106105425761010080835404028352916020019161056d565b820191906000526020600020905b81548152906001019060200180831161055057829003601f168201915b50505050509050919050565b600073ffffffffffffffffffffffffffffffffffffffff168373ffffffffffffffffffffffffffffffffffffffff1614156105b357600080fd5b600082116105c057600080fd5b600081116105cd57600080fd5b6105e883838360405180602001604052806000815250610b36565b505050565b6105f5610ce8565b73ffffffffffffffffffffffffffffffffffffffff168573ffffffffffffffffffffffffffffffffffffffff16148061063b575061063a85610635610ce8565b610997565b5b61067a576040517f08c379a000000000000000000000000000000000000000000000000000000000815260040161067190612aad565b60405180910390fd5b6106878585858585610cf0565b5050505050565b606081518351146106d4576040517f08c379a00000000000000000000000000000000000000000000000000000000081526004016106cb90612b6d565b60405180910390fd5b6000835167ffffffffffffffff811115610717577f4e487b7100000000000000000000000000000000000000000000000000000000600052604160045260246000fd5b6040519080825280602002602001820160405280156107455781602001602082028036833780820191505090505b50905060005b8451811015610834576107de858281518110610790577f4e487b7100000000000000000000000000000000000000000000000000000000600052603260045260246000fd5b60200260200101518583815181106107d1577f4e487b7100000000000000000000000000000000000000000000000000000000600052603260045260246000fd5b60200260200101516102a7565b828281518110610817577f4e487b7100000000000000000000000000000000000000000000000000000000600052603260045260246000fd5b6020026020010181815250508061082d90612eef565b905061074b565b508091505092915050565b60606098805461084e90612e8c565b80601f016020809104026020016040519081016040528092919081815260200182805461087a90612e8c565b80156108c75780601f1061089c576101008083540402835291602001916108c7565b820191906000526020600020905b8154815290600101906020018083116108aa57829003601f168201915b5050505050905090565b6108e36108dc610ce8565b8383611061565b5050565b60006108f360016111ce565b90508015610917576001600060016101000a81548160ff0219169083151502179055505b6109228484846112be565b801561097b5760008060016101000a81548160ff0219169083151502179055507f7f26b83ff96e1f2b6a682f133852f6798a09c465da95921460cefb3847402498600160405161097291906129b0565b60405180910390a15b50505050565b61099361098c610ce8565b838361131d565b5050565b6000606660008473ffffffffffffffffffffffffffffffffffffffff1673ffffffffffffffffffffffffffffffffffffffff16815260200190815260200160002060008373ffffffffffffffffffffffffffffffffffffffff1673ffffffffffffffffffffffffffffffffffffffff16815260200190815260200160002060009054906101000a900460ff16905092915050565b610a33610ce8565b73ffffffffffffffffffffffffffffffffffffffff168573ffffffffffffffffffffffffffffffffffffffff161480610a795750610a7885610a73610ce8565b610997565b5b610ab8576040517f08c379a0000000000000000000000000000000000000000000000000000000008152600401610aaf90612a6d565b60405180910390fd5b610ac58585858585611566565b5050505050565b60007f01ffc9a7000000000000000000000000000000000000000000000000000000007bffffffffffffffffffffffffffffffffffffffffffffffffffffffff1916827bffffffffffffffffffffffffffffffffffffffffffffffffffffffff1916149050919050565b600073ffffffffffffffffffffffffffffffffffffffff168473ffffffffffffffffffffffffffffffffffffffff161415610ba6576040517f08c379a0000000000000000000000000000000000000000000000000000000008152600401610b9d90612bad565b60405180910390fd5b6000610bb0610ce8565b90506000610bbd85611805565b90506000610bca85611805565b9050610bdb836000898585896118cb565b846065600088815260200190815260200160002060008973ffffffffffffffffffffffffffffffffffffffff1673ffffffffffffffffffffffffffffffffffffffff1681526020019081526020016000206000828254610c3b9190612d61565b925050819055508673ffffffffffffffffffffffffffffffffffffffff16600073ffffffffffffffffffffffffffffffffffffffff168473ffffffffffffffffffffffffffffffffffffffff167fc3d58168c5ae7397731d063d5bbf3d657854427343f4c083240f7aacaa2d0f628989604051610cb9929190612be8565b60405180910390a4610cd0836000898585896118d3565b610cdf836000898989896118db565b50505050505050565b600033905090565b8151835114610d34576040517f08c379a0000000000000000000000000000000000000000000000000000000008152600401610d2b90612b8d565b60405180910390fd5b600073ffffffffffffffffffffffffffffffffffffffff168473ffffffffffffffffffffffffffffffffffffffff161415610da4576040517f08c379a0000000000000000000000000000000000000000000000000000000008152600401610d9b90612a8d565b60405180910390fd5b6000610dae610ce8565b9050610dbe8187878787876118cb565b60005b8451811015610fbe576000858281518110610e05577f4e487b7100000000000000000000000000000000000000000000000000000000600052603260045260246000fd5b602002602001015190506000858381518110610e4a577f4e487b7100000000000000000000000000000000000000000000000000000000600052603260045260246000fd5b6020026020010151905060006065600084815260200190815260200160002060008b73ffffffffffffffffffffffffffffffffffffffff1673ffffffffffffffffffffffffffffffffffffffff16815260200190815260200160002054905081811015610eec576040517f08c379a0000000000000000000000000000000000000000000000000000000008152600401610ee390612b0d565b60405180910390fd5b8181036065600085815260200190815260200160002060008c73ffffffffffffffffffffffffffffffffffffffff1673ffffffffffffffffffffffffffffffffffffffff16815260200190815260200160002081905550816065600085815260200190815260200160002060008b73ffffffffffffffffffffffffffffffffffffffff1673ffffffffffffffffffffffffffffffffffffffff1681526020019081526020016000206000828254610fa39190612d61565b9250508190555050505080610fb790612eef565b9050610dc1565b508473ffffffffffffffffffffffffffffffffffffffff168673ffffffffffffffffffffffffffffffffffffffff168273ffffffffffffffffffffffffffffffffffffffff167f4a39dc06d4c0dbc64b70af90fd698a233a518aa5d07e595d983b8c0526c8f7fb878760405161103592919061295e565b60405180910390a461104b8187878787876118d3565b611059818787878787611ac2565b505050505050565b8173ffffffffffffffffffffffffffffffffffffffff168373ffffffffffffffffffffffffffffffffffffffff1614156110d0576040517f08c379a00000000000000000000000000000000000000000000000000000000081526004016110c790612b4d565b60405180910390fd5b80606660008573ffffffffffffffffffffffffffffffffffffffff1673ffffffffffffffffffffffffffffffffffffffff16815260200190815260200160002060008473ffffffffffffffffffffffffffffffffffffffff1673ffffffffffffffffffffffffffffffffffffffff16815260200190815260200160002060006101000a81548160ff0219169083151502179055508173ffffffffffffffffffffffffffffffffffffffff168373ffffffffffffffffffffffffffffffffffffffff167f17307eab39ab6107e8899845ad3d59bd9653f200f220920489ca2b5937696c31836040516111c19190612995565b60405180910390a3505050565b60008060019054906101000a900460ff16156112455760018260ff161480156111fd57506111fb30611ca9565b155b61123c576040517f08c379a000000000000000000000000000000000000000000000000000000000815260040161123390612acd565b60405180910390fd5b600090506112b9565b8160ff1660008054906101000a900460ff1660ff161061129a576040517f08c379a000000000000000000000000000000000000000000000000000000000815260040161129190612acd565b60405180910390fd5b816000806101000a81548160ff021916908360ff160217905550600190505b919050565b600060019054906101000a900460ff1661130d576040517f08c379a000000000000000000000000000000000000000000000000000000000815260040161130490612b2d565b60405180910390fd5b611318838383611ccc565b505050565b600073ffffffffffffffffffffffffffffffffffffffff168373ffffffffffffffffffffffffffffffffffffffff16141561138d576040517f08c379a000000000000000000000000000000000000000000000000000000000815260040161138490612aed565b60405180910390fd5b6000611397610ce8565b905060006113a484611805565b905060006113b184611805565b90506113d1838760008585604051806020016040528060008152506118cb565b60006065600087815260200190815260200160002060008873ffffffffffffffffffffffffffffffffffffffff1673ffffffffffffffffffffffffffffffffffffffff16815260200190815260200160002054905084811015611469576040517f08c379a000000000000000000000000000000000000000000000000000000000815260040161146090612a4d565b60405180910390fd5b8481036065600088815260200190815260200160002060008973ffffffffffffffffffffffffffffffffffffffff1673ffffffffffffffffffffffffffffffffffffffff16815260200190815260200160002081905550600073ffffffffffffffffffffffffffffffffffffffff168773ffffffffffffffffffffffffffffffffffffffff168573ffffffffffffffffffffffffffffffffffffffff167fc3d58168c5ae7397731d063d5bbf3d657854427343f4c083240f7aacaa2d0f628989604051611537929190612be8565b60405180910390a461155d848860008686604051806020016040528060008152506118d3565b50505050505050565b600073ffffffffffffffffffffffffffffffffffffffff168473ffffffffffffffffffffffffffffffffffffffff1614156115d6576040517f08c379a00000000000000000000000000000000000000000000000000000000081526004016115cd90612a8d565b60405180910390fd5b60006115e0610ce8565b905060006115ed85611805565b905060006115fa85611805565b905061160a8389898585896118cb565b60006065600088815260200190815260200160002060008a73ffffffffffffffffffffffffffffffffffffffff1673ffffffffffffffffffffffffffffffffffffffff168152602001908152602001600020549050858110156116a2576040517f08c379a000000000000000000000000000000000000000000000000000000000815260040161169990612b0d565b60405180910390fd5b8581036065600089815260200190815260200160002060008b73ffffffffffffffffffffffffffffffffffffffff1673ffffffffffffffffffffffffffffffffffffffff16815260200190815260200160002081905550856065600089815260200190815260200160002060008a73ffffffffffffffffffffffffffffffffffffffff1673ffffffffffffffffffffffffffffffffffffffff16815260200190815260200160002060008282546117599190612d61565b925050819055508773ffffffffffffffffffffffffffffffffffffffff168973ffffffffffffffffffffffffffffffffffffffff168573ffffffffffffffffffffffffffffffffffffffff167fc3d58168c5ae7397731d063d5bbf3d657854427343f4c083240f7aacaa2d0f628a8a6040516117d6929190612be8565b60405180910390a46117ec848a8a86868a6118d3565b6117fa848a8a8a8a8a6118db565b505050505050505050565b60606000600167ffffffffffffffff81111561184a577f4e487b7100000000000000000000000000000000000000000000000000000000600052604160045260246000fd5b6040519080825280602002602001820160405280156118785781602001602082028036833780820191505090505b50905082816000815181106118b6577f4e487b7100000000000000000000000000000000000000000000000000000000600052603260045260246000fd5b60200260200101818152505080915050919050565b505050505050565b505050505050565b6118fa8473ffffffffffffffffffffffffffffffffffffffff16611ca9565b15611aba578373ffffffffffffffffffffffffffffffffffffffff1663f23a6e6187878686866040518663ffffffff1660e01b81526004016119409594939291906128e2565b602060405180830381600087803b15801561195a57600080fd5b505af192505050801561198b57506040513d601f19601f820116820180604052508101906119889190612415565b60015b611a3157611997612fc5565b806308c379a014156119f457506119ac6134a6565b806119b757506119f6565b806040517f08c379a00000000000000000000000000000000000000000000000000000000081526004016119eb91906129cb565b60405180910390fd5b505b6040517f08c379a0000000000000000000000000000000000000000000000000000000008152600401611a28906129ed565b60405180910390fd5b63f23a6e6160e01b7bffffffffffffffffffffffffffffffffffffffffffffffffffffffff1916817bffffffffffffffffffffffffffffffffffffffffffffffffffffffff191614611ab8576040517f08c379a0000000000000000000000000000000000000000000000000000000008152600401611aaf90612a0d565b60405180910390fd5b505b505050505050565b611ae18473ffffffffffffffffffffffffffffffffffffffff16611ca9565b15611ca1578373ffffffffffffffffffffffffffffffffffffffff1663bc197c8187878686866040518663ffffffff1660e01b8152600401611b2795949392919061287a565b602060405180830381600087803b158015611b4157600080fd5b505af1925050508015611b7257506040513d601f19601f82011682018060405250810190611b6f9190612415565b60015b611c1857611b7e612fc5565b806308c379a01415611bdb5750611b936134a6565b80611b9e5750611bdd565b806040517f08c379a0000000000000000000000000000000000000000000000000000000008152600401611bd291906129cb565b60405180910390fd5b505b6040517f08c379a0000000000000000000000000000000000000000000000000000000008152600401611c0f906129ed565b60405180910390fd5b63bc197c8160e01b7bffffffffffffffffffffffffffffffffffffffffffffffffffffffff1916817bffffffffffffffffffffffffffffffffffffffffffffffffffffffff191614611c9f576040517f08c379a0000000000000000000000000000000000000000000000000000000008152600401611c9690612a0d565b60405180910390fd5b505b505050505050565b6000808273ffffffffffffffffffffffffffffffffffffffff163b119050919050565b600060019054906101000a900460ff16611d1b576040517f08c379a0000000000000000000000000000000000000000000000000000000008152600401611d1290612b2d565b60405180910390fd5b611d2481611d57565b8260979080519060200190611d3a929190611e27565b508160989080519060200190611d51929190611e27565b50505050565b600060019054906101000a900460ff16611da6576040517f08c379a0000000000000000000000000000000000000000000000000000000008152600401611d9d90612b2d565b60405180910390fd5b611daf81611db2565b50565b600060019054906101000a900460ff16611e01576040517f08c379a0000000000000000000000000000000000000000000000000000000008152600401611df890612b2d565b60405180910390fd5b611e0a81611e0d565b50565b8060679080519060200190611e23929190611e27565b5050565b828054611e3390612e8c565b90600052602060002090601f016020900481019282611e555760008555611e9c565b82601f10611e6e57805160ff1916838001178555611e9c565b82800160010185558215611e9c579182015b82811115611e9b578251825591602001919060010190611e80565b5b509050611ea99190611ead565b5090565b5b80821115611ec6576000816000905550600101611eae565b5090565b6000611edd611ed884612c36565b612c11565b90508083825260208201905082856020860282011115611efc57600080fd5b60005b85811015611f2c5781611f12888261201e565b845260208401935060208301925050600181019050611eff565b5050509392505050565b6000611f49611f4484612c62565b612c11565b90508083825260208201905082856020860282011115611f6857600080fd5b60005b85811015611f985781611f7e888261211a565b845260208401935060208301925050600181019050611f6b565b5050509392505050565b6000611fb5611fb084612c8e565b612c11565b905082815260208101848484011115611fcd57600080fd5b611fd8848285612e4a565b509392505050565b6000611ff3611fee84612cbf565b612c11565b90508281526020810184848401111561200b57600080fd5b612016848285612e4a565b509392505050565b60008135905061202d8161353c565b92915050565b600082601f83011261204457600080fd5b8135612054848260208601611eca565b91505092915050565b600082601f83011261206e57600080fd5b813561207e848260208601611f36565b91505092915050565b60008135905061209681613553565b92915050565b6000813590506120ab8161356a565b92915050565b6000815190506120c08161356a565b92915050565b600082601f8301126120d757600080fd5b81356120e7848260208601611fa2565b91505092915050565b600082601f83011261210157600080fd5b8135612111848260208601611fe0565b91505092915050565b60008135905061212981613581565b92915050565b6000806040838503121561214257600080fd5b60006121508582860161201e565b92505060206121618582860161201e565b9150509250929050565b600080600080600060a0868803121561218357600080fd5b60006121918882890161201e565b95505060206121a28882890161201e565b945050604086013567ffffffffffffffff8111156121bf57600080fd5b6121cb8882890161205d565b935050606086013567ffffffffffffffff8111156121e857600080fd5b6121f48882890161205d565b925050608086013567ffffffffffffffff81111561221157600080fd5b61221d888289016120c6565b9150509295509295909350565b600080600080600060a0868803121561224257600080fd5b60006122508882890161201e565b95505060206122618882890161201e565b94505060406122728882890161211a565b93505060606122838882890161211a565b925050608086013567ffffffffffffffff8111156122a057600080fd5b6122ac888289016120c6565b9150509295509295909350565b600080604083850312156122cc57600080fd5b60006122da8582860161201e565b92505060206122eb85828601612087565b9150509250929050565b6000806040838503121561230857600080fd5b60006123168582860161201e565b92505060206123278582860161211a565b9150509250929050565b60008060006060848603121561234657600080fd5b60006123548682870161201e565b93505060206123658682870161211a565b92505060406123768682870161211a565b9150509250925092565b6000806040838503121561239357600080fd5b600083013567ffffffffffffffff8111156123ad57600080fd5b6123b985828601612033565b925050602083013567ffffffffffffffff8111156123d657600080fd5b6123e28582860161205d565b9150509250929050565b6000602082840312156123fe57600080fd5b600061240c8482850161209c565b91505092915050565b60006020828403121561242757600080fd5b6000612435848285016120b1565b91505092915050565b60008060006060848603121561245357600080fd5b600084013567ffffffffffffffff81111561246d57600080fd5b612479868287016120f0565b935050602084013567ffffffffffffffff81111561249657600080fd5b6124a2868287016120f0565b925050604084013567ffffffffffffffff8111156124bf57600080fd5b6124cb868287016120f0565b9150509250925092565b6000602082840312156124e757600080fd5b60006124f58482850161211a565b91505092915050565b6000806040838503121561251157600080fd5b600061251f8582860161211a565b92505060206125308582860161211a565b9150509250929050565b6000612546838361285c565b60208301905092915050565b61255b81612db7565b82525050565b600061256c82612d00565b6125768185612d2e565b935061258183612cf0565b8060005b838110156125b2578151612599888261253a565b97506125a483612d21565b925050600181019050612585565b5085935050505092915050565b6125c881612dc9565b82525050565b60006125d982612d0b565b6125e38185612d3f565b93506125f3818560208601612e59565b6125fc81612fe7565b840191505092915050565b61261081612e38565b82525050565b600061262182612d16565b61262b8185612d50565b935061263b818560208601612e59565b61264481612fe7565b840191505092915050565b600061265c603483612d50565b915061266782613005565b604082019050919050565b600061267f602883612d50565b915061268a82613054565b604082019050919050565b60006126a2602b83612d50565b91506126ad826130a3565b604082019050919050565b60006126c5602483612d50565b91506126d0826130f2565b604082019050919050565b60006126e8602983612d50565b91506126f382613141565b604082019050919050565b600061270b602583612d50565b915061271682613190565b604082019050919050565b600061272e603283612d50565b9150612739826131df565b604082019050919050565b6000612751602e83612d50565b915061275c8261322e565b604082019050919050565b6000612774602383612d50565b915061277f8261327d565b604082019050919050565b6000612797602a83612d50565b91506127a2826132cc565b604082019050919050565b60006127ba602b83612d50565b91506127c58261331b565b604082019050919050565b60006127dd602983612d50565b91506127e88261336a565b604082019050919050565b6000612800602983612d50565b915061280b826133b9565b604082019050919050565b6000612823602883612d50565b915061282e82613408565b604082019050919050565b6000612846602183612d50565b915061285182613457565b604082019050919050565b61286581612e21565b82525050565b61287481612e21565b82525050565b600060a08201905061288f6000830188612552565b61289c6020830187612552565b81810360408301526128ae8186612561565b905081810360608301526128c28185612561565b905081810360808301526128d681846125ce565b90509695505050505050565b600060a0820190506128f76000830188612552565b6129046020830187612552565b612911604083018661286b565b61291e606083018561286b565b818103608083015261293081846125ce565b90509695505050505050565b600060208201905081810360008301526129568184612561565b905092915050565b600060408201905081810360008301526129788185612561565b9050818103602083015261298c8184612561565b90509392505050565b60006020820190506129aa60008301846125bf565b92915050565b60006020820190506129c56000830184612607565b92915050565b600060208201905081810360008301526129e58184612616565b905092915050565b60006020820190508181036000830152612a068161264f565b9050919050565b60006020820190508181036000830152612a2681612672565b9050919050565b60006020820190508181036000830152612a4681612695565b9050919050565b60006020820190508181036000830152612a66816126b8565b9050919050565b60006020820190508181036000830152612a86816126db565b9050919050565b60006020820190508181036000830152612aa6816126fe565b9050919050565b60006020820190508181036000830152612ac681612721565b9050919050565b60006020820190508181036000830152612ae681612744565b9050919050565b60006020820190508181036000830152612b0681612767565b9050919050565b60006020820190508181036000830152612b268161278a565b9050919050565b60006020820190508181036000830152612b46816127ad565b9050919050565b60006020820190508181036000830152612b66816127d0565b9050919050565b60006020820190508181036000830152612b86816127f3565b9050919050565b60006020820190508181036000830152612ba681612816565b9050919050565b60006020820190508181036000830152612bc681612839565b9050919050565b6000602082019050612be2600083018461286b565b92915050565b6000604082019050612bfd600083018561286b565b612c0a602083018461286b565b9392505050565b6000612c1b612c2c565b9050612c278282612ebe565b919050565b6000604051905090565b600067ffffffffffffffff821115612c5157612c50612f96565b5b602082029050602081019050919050565b600067ffffffffffffffff821115612c7d57612c7c612f96565b5b602082029050602081019050919050565b600067ffffffffffffffff821115612ca957612ca8612f96565b5b612cb282612fe7565b9050602081019050919050565b600067ffffffffffffffff821115612cda57612cd9612f96565b5b612ce382612fe7565b9050602081019050919050565b6000819050602082019050919050565b600081519050919050565b600081519050919050565b600081519050919050565b6000602082019050919050565b600082825260208201905092915050565b600082825260208201905092915050565b600082825260208201905092915050565b6000612d6c82612e21565b9150612d7783612e21565b9250827fffffffffffffffffffffffffffffffffffffffffffffffffffffffffffffffff03821115612dac57612dab612f38565b5b828201905092915050565b6000612dc282612e01565b9050919050565b60008115159050919050565b60007fffffffff0000000000000000000000000000000000000000000000000000000082169050919050565b600073ffffffffffffffffffffffffffffffffffffffff82169050919050565b6000819050919050565b600060ff82169050919050565b6000612e4382612e2b565b9050919050565b82818337600083830152505050565b60005b83811015612e77578082015181840152602081019050612e5c565b83811115612e86576000848401525b50505050565b60006002820490506001821680612ea457607f821691505b60208210811415612eb857612eb7612f67565b5b50919050565b612ec782612fe7565b810181811067ffffffffffffffff82111715612ee657612ee5612f96565b5b80604052505050565b6000612efa82612e21565b91507fffffffffffffffffffffffffffffffffffffffffffffffffffffffffffffffff821415612f2d57612f2c612f38565b5b600182019050919050565b7f4e487b7100000000000000000000000000000000000000000000000000000000600052601160045260246000fd5b7f4e487b7100000000000000000000000000000000000000000000000000000000600052602260045260246000fd5b7f4e487b7100000000000000000000000000000000000000000000000000000000600052604160045260246000fd5b600060033d1115612fe45760046000803e612fe1600051612ff8565b90505b90565b6000601f19601f8301169050919050565b60008160e01c9050919050565b7f455243313135353a207472616e7366657220746f206e6f6e204552433131353560008201527f526563656976657220696d706c656d656e746572000000000000000000000000602082015250565b7f455243313135353a204552433131353552656365697665722072656a6563746560008201527f6420746f6b656e73000000000000000000000000000000000000000000000000602082015250565b7f455243313135353a2062616c616e636520717565727920666f7220746865207a60008201527f65726f2061646472657373000000000000000000000000000000000000000000602082015250565b7f455243313135353a206275726e20616d6f756e7420657863656564732062616c60008201527f616e636500000000000000000000000000000000000000000000000000000000602082015250565b7f455243313135353a2063616c6c6572206973206e6f74206f776e6572206e6f7260008201527f20617070726f7665640000000000000000000000000000000000000000000000602082015250565b7f455243313135353a207472616e7366657220746f20746865207a65726f20616460008201527f6472657373000000000000000000000000000000000000000000000000000000602082015250565b7f455243313135353a207472616e736665722063616c6c6572206973206e6f742060008201527f6f776e6572206e6f7220617070726f7665640000000000000000000000000000602082015250565b7f496e697469616c697a61626c653a20636f6e747261637420697320616c72656160008201527f647920696e697469616c697a6564000000000000000000000000000000000000602082015250565b7f455243313135353a206275726e2066726f6d20746865207a65726f206164647260008201527f6573730000000000000000000000000000000000000000000000000000000000602082015250565b7f455243313135353a20696e73756666696369656e742062616c616e636520666f60008201527f72207472616e7366657200000000000000000000000000000000000000000000602082015250565b7f496e697469616c697a61626c653a20636f6e7472616374206973206e6f74206960008201527f6e697469616c697a696e67000000000000000000000000000000000000000000602082015250565b7f455243313135353a2073657474696e6720617070726f76616c2073746174757360008201527f20666f722073656c660000000000000000000000000000000000000000000000602082015250565b7f455243313135353a206163636f756e747320616e6420696473206c656e67746860008201527f206d69736d617463680000000000000000000000000000000000000000000000602082015250565b7f455243313135353a2069647320616e6420616d6f756e7473206c656e6774682060008201527f6d69736d61746368000000000000000000000000000000000000000000000000602082015250565b7f455243313135353a206d696e7420746f20746865207a65726f2061646472657360008201527f7300000000000000000000000000000000000000000000000000000000000000602082015250565b600060443d10156134b657613539565b6134be612c2c565b60043d036004823e80513d602482011167ffffffffffffffff821117156134e6575050613539565b808201805167ffffffffffffffff8111156135045750505050613539565b80602083010160043d038501811115613521575050505050613539565b61353082602001850186612ebe565b82955050505050505b90565b61354581612db7565b811461355057600080fd5b50565b61355c81612dc9565b811461356757600080fd5b50565b61357381612dd5565b811461357e57600080fd5b50565b61358a81612e21565b811461359557600080fd5b5056fea26469706673582212206d20b0d7b35250fd0904735e50b9a4199952fc06636ad81eeb7c6e0cdad9f53064736f6c63430008040033",
  "linkReferences": {},
  "deployedLinkReferences": {}
}