{
  "_format": "hh-sol-artifact-1",
  "contractName": "MockERC721Upgradeable",
  "sourceName": "contracts/MockERC721Upgradeable.sol",
  "abi": [
    {
      "anonymous": false,
      "inputs": [
        {
          "indexed": true,
          "internalType": "address",
          "name": "owner",
          "type": "address"
        },
        {
          "indexed": true,
          "internalType": "address",
          "name": "approved",
          "type": "address"
        },
        {
          "indexed": true,
          "internalType": "uint256",
          "name": "tokenId",
          "type": "uint256"
        }
      ],
      "name": "Approval",
      "type": "event"
    },
    {
      "anonymous": false,
      "inputs": [
        {
          "indexed": true,
          "internalType": "address",
          "name": "owner",
          "type": "address"
        },
        {
          "indexed": true,
          "internalType": "address",
          "name": "operator",
          "type": "address"
        },
        {
          "indexed": false,
          "internalType": "bool",
          "name": "approved",
          "type": "bool"
        }
      ],
      "name": "ApprovalForAll",
      "type": "event"
    },
    {
      "anonymous": false,
      "inputs": [
        {
          "indexed": false,
          "internalType": "uint8",
          "name": "version",
          "type": "uint8"
        }
      ],
      "name": "Initialized",
      "type": "event"
    },
    {
      "anonymous": false,
      "inputs": [
        {
          "indexed": true,
          "internalType": "address",
          "name": "from",
          "type": "address"
        },
        {
          "indexed": true,
          "internalType": "address",
          "name": "to",
          "type": "address"
        },
        {
          "indexed": true,
          "internalType": "uint256",
          "name": "tokenId",
          "type": "uint256"
        }
      ],
      "name": "Transfer",
      "type": "event"
    },
    {
      "inputs": [
        {
          "internalType": "address",
          "name": "to",
          "type": "address"
        },
        {
          "internalType": "uint256",
          "name": "tokenId",
          "type": "uint256"
        }
      ],
      "name": "approve",
      "outputs": [],
      "stateMutability": "nonpayable",
      "type": "function"
    },
    {
      "inputs": [
        {
          "internalType": "address",
          "name": "owner",
          "type": "address"
        }
      ],
      "name": "balanceOf",
      "outputs": [
        {
          "internalType": "uint256",
          "name": "",
          "type": "uint256"
        }
      ],
      "stateMutability": "view",
      "type": "function"
    },
    {
      "inputs": [
        {
          "internalType": "uint256",
          "name": "_tokenId",
          "type": "uint256"
        }
      ],
      "name": "burn",
      "outputs": [],
      "stateMutability": "nonpayable",
      "type": "function"
    },
    {
      "inputs": [
        {
          "internalType": "uint256",
          "name": "tokenId",
          "type": "uint256"
        }
      ],
      "name": "getApproved",
      "outputs": [
        {
          "internalType": "address",
          "name": "",
          "type": "address"
        }
      ],
      "stateMutability": "view",
      "type": "function"
    },
    {
      "inputs": [
        {
          "internalType": "string",
          "name": "name_",
          "type": "string"
        },
        {
          "internalType": "string",
          "name": "symbol_",
          "type": "string"
        }
      ],
      "name": "initialize",
      "outputs": [],
      "stateMutability": "nonpayable",
      "type": "function"
    },
    {
      "inputs": [
        {
          "internalType": "address",
          "name": "owner",
          "type": "address"
        },
        {
          "internalType": "address",
          "name": "operator",
          "type": "address"
        }
      ],
      "name": "isApprovedForAll",
      "outputs": [
        {
          "internalType": "bool",
          "name": "",
          "type": "bool"
        }
      ],
      "stateMutability": "view",
      "type": "function"
    },
    {
      "inputs": [
        {
          "internalType": "address",
          "name": "_to",
          "type": "address"
        },
        {
          "internalType": "uint256",
          "name": "_tokenId",
          "type": "uint256"
        }
      ],
      "name": "mint",
      "outputs": [],
      "stateMutability": "nonpayable",
      "type": "function"
    },
    {
      "inputs": [],
      "name": "name",
      "outputs": [
        {
          "internalType": "string",
          "name": "",
          "type": "string"
        }
      ],
      "stateMutability": "view",
      "type": "function"
    },
    {
      "inputs": [
        {
          "internalType": "uint256",
          "name": "tokenId",
          "type": "uint256"
        }
      ],
      "name": "ownerOf",
      "outputs": [
        {
          "internalType": "address",
          "name": "",
          "type": "address"
        }
      ],
      "stateMutability": "view",
      "type": "function"
    },
    {
      "inputs": [
        {
          "internalType": "address",
          "name": "from",
          "type": "address"
        },
        {
          "internalType": "address",
          "name": "to",
          "type": "address"
        },
        {
          "internalType": "uint256",
          "name": "tokenId",
          "type": "uint256"
        }
      ],
      "name": "safeTransferFrom",
      "outputs": [],
      "stateMutability": "nonpayable",
      "type": "function"
    },
    {
      "inputs": [
        {
          "internalType": "address",
          "name": "from",
          "type": "address"
        },
        {
          "internalType": "address",
          "name": "to",
          "type": "address"
        },
        {
          "internalType": "uint256",
          "name": "tokenId",
          "type": "uint256"
        },
        {
          "internalType": "bytes",
          "name": "_data",
          "type": "bytes"
        }
      ],
      "name": "safeTransferFrom",
      "outputs": [],
      "stateMutability": "nonpayable",
      "type": "function"
    },
    {
      "inputs": [
        {
          "internalType": "address",
          "name": "operator",
          "type": "address"
        },
        {
          "internalType": "bool",
          "name": "approved",
          "type": "bool"
        }
      ],
      "name": "setApprovalForAll",
      "outputs": [],
      "stateMutability": "nonpayable",
      "type": "function"
    },
    {
      "inputs": [
        {
          "internalType": "bytes4",
          "name": "interfaceId",
          "type": "bytes4"
        }
      ],
      "name": "supportsInterface",
      "outputs": [
        {
          "internalType": "bool",
          "name": "",
          "type": "bool"
        }
      ],
      "stateMutability": "view",
      "type": "function"
    },
    {
      "inputs": [],
      "name": "symbol",
      "outputs": [
        {
          "internalType": "string",
          "name": "",
          "type": "string"
        }
      ],
      "stateMutability": "view",
      "type": "function"
    },
    {
      "inputs": [
        {
          "internalType": "uint256",
          "name": "tokenId",
          "type": "uint256"
        }
      ],
      "name": "tokenURI",
      "outputs": [
        {
          "internalType": "string",
          "name": "",
          "type": "string"
        }
      ],
      "stateMutability": "view",
      "type": "function"
    },
    {
      "inputs": [
        {
          "internalType": "address",
          "name": "from",
          "type": "address"
        },
        {
          "internalType": "address",
          "name": "to",
          "type": "address"
        },
        {
          "internalType": "uint256",
          "name": "tokenId",
          "type": "uint256"
        }
      ],
      "name": "transferFrom",
      "outputs": [],
      "stateMutability": "nonpayable",
      "type": "function"
    }
  ],
  "bytecode": "0x608060405234801561001057600080fd5b50612ec3806100206000396000f3fe608060405234801561001057600080fd5b50600436106101005760003560e01c80634cd88b7611610097578063a22cb46511610066578063a22cb465146102a9578063b88d4fde146102c5578063c87b56dd146102e1578063e985e9c51461031157610100565b80634cd88b761461020f5780636352211e1461022b57806370a082311461025b57806395d89b411461028b57610100565b806323b872dd116100d357806323b872dd1461019f57806340c10f19146101bb57806342842e0e146101d757806342966c68146101f357610100565b806301ffc9a71461010557806306fdde0314610135578063081812fc14610153578063095ea7b314610183575b600080fd5b61011f600480360381019061011a9190611ebb565b610341565b60405161012c919061233c565b60405180910390f35b61013d610423565b60405161014a9190612372565b60405180910390f35b61016d60048036038101906101689190611f79565b6104b5565b60405161017a91906122d5565b60405180910390f35b61019d60048036038101906101989190611e7f565b61053a565b005b6101b960048036038101906101b49190611d79565b610652565b005b6101d560048036038101906101d09190611e7f565b6106b2565b005b6101f160048036038101906101ec9190611d79565b610707565b005b61020d60048036038101906102089190611f79565b610727565b005b61022960048036038101906102249190611f0d565b610745565b005b61024560048036038101906102409190611f79565b6107dd565b60405161025291906122d5565b60405180910390f35b61027560048036038101906102709190611d14565b61088f565b6040516102829190612594565b60405180910390f35b610293610947565b6040516102a09190612372565b60405180910390f35b6102c360048036038101906102be9190611e43565b6109d9565b005b6102df60048036038101906102da9190611dc8565b6109ef565b005b6102fb60048036038101906102f69190611f79565b610a51565b6040516103089190612372565b60405180910390f35b61032b60048036038101906103269190611d3d565b610af8565b604051610338919061233c565b60405180910390f35b60007f80ac58cd000000000000000000000000000000000000000000000000000000007bffffffffffffffffffffffffffffffffffffffffffffffffffffffff1916827bffffffffffffffffffffffffffffffffffffffffffffffffffffffff1916148061040c57507f5b5e139f000000000000000000000000000000000000000000000000000000007bffffffffffffffffffffffffffffffffffffffffffffffffffffffff1916827bffffffffffffffffffffffffffffffffffffffffffffffffffffffff1916145b8061041c575061041b82610b8c565b5b9050919050565b60606065805461043290612809565b80601f016020809104026020016040519081016040528092919081815260200182805461045e90612809565b80156104ab5780601f10610480576101008083540402835291602001916104ab565b820191906000526020600020905b81548152906001019060200180831161048e57829003601f168201915b5050505050905090565b60006104c082610bf6565b6104ff576040517f08c379a00000000000000000000000000000000000000000000000000000000081526004016104f6906124f4565b60405180910390fd5b6069600083815260200190815260200160002060009054906101000a900473ffffffffffffffffffffffffffffffffffffffff169050919050565b6000610545826107dd565b90508073ffffffffffffffffffffffffffffffffffffffff168373ffffffffffffffffffffffffffffffffffffffff1614156105b6576040517f08c379a00000000000000000000000000000000000000000000000000000000081526004016105ad90612534565b60405180910390fd5b8073ffffffffffffffffffffffffffffffffffffffff166105d5610c62565b73ffffffffffffffffffffffffffffffffffffffff1614806106045750610603816105fe610c62565b610af8565b5b610643576040517f08c379a000000000000000000000000000000000000000000000000000000000815260040161063a90612454565b60405180910390fd5b61064d8383610c6a565b505050565b61066361065d610c62565b82610d23565b6106a2576040517f08c379a000000000000000000000000000000000000000000000000000000000815260040161069990612554565b60405180910390fd5b6106ad838383610e01565b505050565b600073ffffffffffffffffffffffffffffffffffffffff168273ffffffffffffffffffffffffffffffffffffffff1614156106ec57600080fd5b600081116106f957600080fd5b6107038282611068565b5050565b610722838383604051806020016040528060008152506109ef565b505050565b61073081610bf6565b61073957600080fd5b61074281611242565b50565b6000610751600161135f565b90508015610775576001600060016101000a81548160ff0219169083151502179055505b61077f838361144f565b80156107d85760008060016101000a81548160ff0219169083151502179055507f7f26b83ff96e1f2b6a682f133852f6798a09c465da95921460cefb384740249860016040516107cf9190612357565b60405180910390a15b505050565b6000806067600084815260200190815260200160002060009054906101000a900473ffffffffffffffffffffffffffffffffffffffff169050600073ffffffffffffffffffffffffffffffffffffffff168173ffffffffffffffffffffffffffffffffffffffff161415610886576040517f08c379a000000000000000000000000000000000000000000000000000000000815260040161087d90612494565b60405180910390fd5b80915050919050565b60008073ffffffffffffffffffffffffffffffffffffffff168273ffffffffffffffffffffffffffffffffffffffff161415610900576040517f08c379a00000000000000000000000000000000000000000000000000000000081526004016108f790612474565b60405180910390fd5b606860008373ffffffffffffffffffffffffffffffffffffffff1673ffffffffffffffffffffffffffffffffffffffff168152602001908152602001600020549050919050565b60606066805461095690612809565b80601f016020809104026020016040519081016040528092919081815260200182805461098290612809565b80156109cf5780601f106109a4576101008083540402835291602001916109cf565b820191906000526020600020905b8154815290600101906020018083116109b257829003601f168201915b5050505050905090565b6109eb6109e4610c62565b83836114ac565b5050565b610a006109fa610c62565b83610d23565b610a3f576040517f08c379a0000000000000000000000000000000000000000000000000000000008152600401610a3690612554565b60405180910390fd5b610a4b84848484611619565b50505050565b6060610a5c82610bf6565b610a9b576040517f08c379a0000000000000000000000000000000000000000000000000000000008152600401610a9290612514565b60405180910390fd5b6000610aa5611675565b90506000815111610ac55760405180602001604052806000815250610af0565b80610acf8461168c565b604051602001610ae09291906122b1565b6040516020818303038152906040525b915050919050565b6000606a60008473ffffffffffffffffffffffffffffffffffffffff1673ffffffffffffffffffffffffffffffffffffffff16815260200190815260200160002060008373ffffffffffffffffffffffffffffffffffffffff1673ffffffffffffffffffffffffffffffffffffffff16815260200190815260200160002060009054906101000a900460ff16905092915050565b60007f01ffc9a7000000000000000000000000000000000000000000000000000000007bffffffffffffffffffffffffffffffffffffffffffffffffffffffff1916827bffffffffffffffffffffffffffffffffffffffffffffffffffffffff1916149050919050565b60008073ffffffffffffffffffffffffffffffffffffffff166067600084815260200190815260200160002060009054906101000a900473ffffffffffffffffffffffffffffffffffffffff1673ffffffffffffffffffffffffffffffffffffffff1614159050919050565b600033905090565b816069600083815260200190815260200160002060006101000a81548173ffffffffffffffffffffffffffffffffffffffff021916908373ffffffffffffffffffffffffffffffffffffffff160217905550808273ffffffffffffffffffffffffffffffffffffffff16610cdd836107dd565b73ffffffffffffffffffffffffffffffffffffffff167f8c5be1e5ebec7d5bd14f71427d1e84f3dd0314c0f7b2291e5b200ac8c7c3b92560405160405180910390a45050565b6000610d2e82610bf6565b610d6d576040517f08c379a0000000000000000000000000000000000000000000000000000000008152600401610d6490612434565b60405180910390fd5b6000610d78836107dd565b90508073ffffffffffffffffffffffffffffffffffffffff168473ffffffffffffffffffffffffffffffffffffffff161480610dba5750610db98185610af8565b5b80610df857508373ffffffffffffffffffffffffffffffffffffffff16610de0846104b5565b73ffffffffffffffffffffffffffffffffffffffff16145b91505092915050565b8273ffffffffffffffffffffffffffffffffffffffff16610e21826107dd565b73ffffffffffffffffffffffffffffffffffffffff1614610e77576040517f08c379a0000000000000000000000000000000000000000000000000000000008152600401610e6e906123b4565b60405180910390fd5b600073ffffffffffffffffffffffffffffffffffffffff168273ffffffffffffffffffffffffffffffffffffffff161415610ee7576040517f08c379a0000000000000000000000000000000000000000000000000000000008152600401610ede906123f4565b60405180910390fd5b610ef2838383611839565b610efd600082610c6a565b6001606860008573ffffffffffffffffffffffffffffffffffffffff1673ffffffffffffffffffffffffffffffffffffffff1681526020019081526020016000206000828254610f4d9190612700565b925050819055506001606860008473ffffffffffffffffffffffffffffffffffffffff1673ffffffffffffffffffffffffffffffffffffffff1681526020019081526020016000206000828254610fa49190612679565b92505081905550816067600083815260200190815260200160002060006101000a81548173ffffffffffffffffffffffffffffffffffffffff021916908373ffffffffffffffffffffffffffffffffffffffff160217905550808273ffffffffffffffffffffffffffffffffffffffff168473ffffffffffffffffffffffffffffffffffffffff167fddf252ad1be2c89b69c2b068fc378daa952ba7f163c4a11628f55a4df523b3ef60405160405180910390a461106383838361183e565b505050565b600073ffffffffffffffffffffffffffffffffffffffff168273ffffffffffffffffffffffffffffffffffffffff1614156110d8576040517f08c379a00000000000000000000000000000000000000000000000000000000081526004016110cf906124d4565b60405180910390fd5b6110e181610bf6565b15611121576040517f08c379a0000000000000000000000000000000000000000000000000000000008152600401611118906123d4565b60405180910390fd5b61112d60008383611839565b6001606860008473ffffffffffffffffffffffffffffffffffffffff1673ffffffffffffffffffffffffffffffffffffffff168152602001908152602001600020600082825461117d9190612679565b92505081905550816067600083815260200190815260200160002060006101000a81548173ffffffffffffffffffffffffffffffffffffffff021916908373ffffffffffffffffffffffffffffffffffffffff160217905550808273ffffffffffffffffffffffffffffffffffffffff16600073ffffffffffffffffffffffffffffffffffffffff167fddf252ad1be2c89b69c2b068fc378daa952ba7f163c4a11628f55a4df523b3ef60405160405180910390a461123e6000838361183e565b5050565b600061124d826107dd565b905061125b81600084611839565b611266600083610c6a565b6001606860008373ffffffffffffffffffffffffffffffffffffffff1673ffffffffffffffffffffffffffffffffffffffff16815260200190815260200160002060008282546112b69190612700565b925050819055506067600083815260200190815260200160002060006101000a81549073ffffffffffffffffffffffffffffffffffffffff021916905581600073ffffffffffffffffffffffffffffffffffffffff168273ffffffffffffffffffffffffffffffffffffffff167fddf252ad1be2c89b69c2b068fc378daa952ba7f163c4a11628f55a4df523b3ef60405160405180910390a461135b8160008461183e565b5050565b60008060019054906101000a900460ff16156113d65760018260ff1614801561138e575061138c30611843565b155b6113cd576040517f08c379a00000000000000000000000000000000000000000000000000000000081526004016113c4906124b4565b60405180910390fd5b6000905061144a565b8160ff1660008054906101000a900460ff1660ff161061142b576040517f08c379a0000000000000000000000000000000000000000000000000000000008152600401611422906124b4565b60405180910390fd5b816000806101000a81548160ff021916908360ff160217905550600190505b919050565b600060019054906101000a900460ff1661149e576040517f08c379a000000000000000000000000000000000000000000000000000000000815260040161149590612574565b60405180910390fd5b6114a88282611866565b5050565b8173ffffffffffffffffffffffffffffffffffffffff168373ffffffffffffffffffffffffffffffffffffffff16141561151b576040517f08c379a000000000000000000000000000000000000000000000000000000000815260040161151290612414565b60405180910390fd5b80606a60008573ffffffffffffffffffffffffffffffffffffffff1673ffffffffffffffffffffffffffffffffffffffff16815260200190815260200160002060008473ffffffffffffffffffffffffffffffffffffffff1673ffffffffffffffffffffffffffffffffffffffff16815260200190815260200160002060006101000a81548160ff0219169083151502179055508173ffffffffffffffffffffffffffffffffffffffff168373ffffffffffffffffffffffffffffffffffffffff167f17307eab39ab6107e8899845ad3d59bd9653f200f220920489ca2b5937696c318360405161160c919061233c565b60405180910390a3505050565b611624848484610e01565b611630848484846118c3565b61166f576040517f08c379a000000000000000000000000000000000000000000000000000000000815260040161166690612394565b60405180910390fd5b50505050565b606060405180602001604052806000815250905090565b606060008214156116d4576040518060400160405280600181526020017f30000000000000000000000000000000000000000000000000000000000000008152509050611834565b600082905060005b600082146117065780806116ef9061286c565b915050600a826116ff91906126cf565b91506116dc565b60008167ffffffffffffffff811115611748577f4e487b7100000000000000000000000000000000000000000000000000000000600052604160045260246000fd5b6040519080825280601f01601f19166020018201604052801561177a5781602001600182028036833780820191505090505b5090505b6000851461182d576001826117939190612700565b9150600a856117a291906128b5565b60306117ae9190612679565b60f81b8183815181106117ea577f4e487b7100000000000000000000000000000000000000000000000000000000600052603260045260246000fd5b60200101907effffffffffffffffffffffffffffffffffffffffffffffffffffffffffffff1916908160001a905350600a8561182691906126cf565b945061177e565b8093505050505b919050565b505050565b505050565b6000808273ffffffffffffffffffffffffffffffffffffffff163b119050919050565b600060019054906101000a900460ff166118b5576040517f08c379a00000000000000000000000000000000000000000000000000000000081526004016118ac90612574565b60405180910390fd5b6118bf8282611a5a565b5050565b60006118e48473ffffffffffffffffffffffffffffffffffffffff16611843565b15611a4d578373ffffffffffffffffffffffffffffffffffffffff1663150b7a0261190d610c62565b8786866040518563ffffffff1660e01b815260040161192f94939291906122f0565b602060405180830381600087803b15801561194957600080fd5b505af192505050801561197a57506040513d601f19601f820116820180604052508101906119779190611ee4565b60015b6119fd573d80600081146119aa576040519150601f19603f3d011682016040523d82523d6000602084013e6119af565b606091505b506000815114156119f5576040517f08c379a00000000000000000000000000000000000000000000000000000000081526004016119ec90612394565b60405180910390fd5b805181602001fd5b63150b7a0260e01b7bffffffffffffffffffffffffffffffffffffffffffffffffffffffff1916817bffffffffffffffffffffffffffffffffffffffffffffffffffffffff191614915050611a52565b600190505b949350505050565b600060019054906101000a900460ff16611aa9576040517f08c379a0000000000000000000000000000000000000000000000000000000008152600401611aa090612574565b60405180910390fd5b611ab38282611ab7565b5050565b600060019054906101000a900460ff16611b06576040517f08c379a0000000000000000000000000000000000000000000000000000000008152600401611afd90612574565b60405180910390fd5b8160659080519060200190611b1c929190611b38565b508060669080519060200190611b33929190611b38565b505050565b828054611b4490612809565b90600052602060002090601f016020900481019282611b665760008555611bad565b82601f10611b7f57805160ff1916838001178555611bad565b82800160010185558215611bad579182015b82811115611bac578251825591602001919060010190611b91565b5b509050611bba9190611bbe565b5090565b5b80821115611bd7576000816000905550600101611bbf565b5090565b6000611bee611be9846125d4565b6125af565b905082815260208101848484011115611c0657600080fd5b611c118482856127c7565b509392505050565b6000611c2c611c2784612605565b6125af565b905082815260208101848484011115611c4457600080fd5b611c4f8482856127c7565b509392505050565b600081359050611c6681612e31565b92915050565b600081359050611c7b81612e48565b92915050565b600081359050611c9081612e5f565b92915050565b600081519050611ca581612e5f565b92915050565b600082601f830112611cbc57600080fd5b8135611ccc848260208601611bdb565b91505092915050565b600082601f830112611ce657600080fd5b8135611cf6848260208601611c19565b91505092915050565b600081359050611d0e81612e76565b92915050565b600060208284031215611d2657600080fd5b6000611d3484828501611c57565b91505092915050565b60008060408385031215611d5057600080fd5b6000611d5e85828601611c57565b9250506020611d6f85828601611c57565b9150509250929050565b600080600060608486031215611d8e57600080fd5b6000611d9c86828701611c57565b9350506020611dad86828701611c57565b9250506040611dbe86828701611cff565b9150509250925092565b60008060008060808587031215611dde57600080fd5b6000611dec87828801611c57565b9450506020611dfd87828801611c57565b9350506040611e0e87828801611cff565b925050606085013567ffffffffffffffff811115611e2b57600080fd5b611e3787828801611cab565b91505092959194509250565b60008060408385031215611e5657600080fd5b6000611e6485828601611c57565b9250506020611e7585828601611c6c565b9150509250929050565b60008060408385031215611e9257600080fd5b6000611ea085828601611c57565b9250506020611eb185828601611cff565b9150509250929050565b600060208284031215611ecd57600080fd5b6000611edb84828501611c81565b91505092915050565b600060208284031215611ef657600080fd5b6000611f0484828501611c96565b91505092915050565b60008060408385031215611f2057600080fd5b600083013567ffffffffffffffff811115611f3a57600080fd5b611f4685828601611cd5565b925050602083013567ffffffffffffffff811115611f6357600080fd5b611f6f85828601611cd5565b9150509250929050565b600060208284031215611f8b57600080fd5b6000611f9984828501611cff565b91505092915050565b611fab81612734565b82525050565b611fba81612746565b82525050565b6000611fcb82612636565b611fd5818561264c565b9350611fe58185602086016127d6565b611fee816129a2565b840191505092915050565b612002816127b5565b82525050565b600061201382612641565b61201d818561265d565b935061202d8185602086016127d6565b612036816129a2565b840191505092915050565b600061204c82612641565b612056818561266e565b93506120668185602086016127d6565b80840191505092915050565b600061207f60328361265d565b915061208a826129b3565b604082019050919050565b60006120a260258361265d565b91506120ad82612a02565b604082019050919050565b60006120c5601c8361265d565b91506120d082612a51565b602082019050919050565b60006120e860248361265d565b91506120f382612a7a565b604082019050919050565b600061210b60198361265d565b915061211682612ac9565b602082019050919050565b600061212e602c8361265d565b915061213982612af2565b604082019050919050565b600061215160388361265d565b915061215c82612b41565b604082019050919050565b6000612174602a8361265d565b915061217f82612b90565b604082019050919050565b600061219760298361265d565b91506121a282612bdf565b604082019050919050565b60006121ba602e8361265d565b91506121c582612c2e565b604082019050919050565b60006121dd60208361265d565b91506121e882612c7d565b602082019050919050565b6000612200602c8361265d565b915061220b82612ca6565b604082019050919050565b6000612223602f8361265d565b915061222e82612cf5565b604082019050919050565b600061224660218361265d565b915061225182612d44565b604082019050919050565b600061226960318361265d565b915061227482612d93565b604082019050919050565b600061228c602b8361265d565b915061229782612de2565b604082019050919050565b6122ab8161279e565b82525050565b60006122bd8285612041565b91506122c98284612041565b91508190509392505050565b60006020820190506122ea6000830184611fa2565b92915050565b60006080820190506123056000830187611fa2565b6123126020830186611fa2565b61231f60408301856122a2565b81810360608301526123318184611fc0565b905095945050505050565b60006020820190506123516000830184611fb1565b92915050565b600060208201905061236c6000830184611ff9565b92915050565b6000602082019050818103600083015261238c8184612008565b905092915050565b600060208201905081810360008301526123ad81612072565b9050919050565b600060208201905081810360008301526123cd81612095565b9050919050565b600060208201905081810360008301526123ed816120b8565b9050919050565b6000602082019050818103600083015261240d816120db565b9050919050565b6000602082019050818103600083015261242d816120fe565b9050919050565b6000602082019050818103600083015261244d81612121565b9050919050565b6000602082019050818103600083015261246d81612144565b9050919050565b6000602082019050818103600083015261248d81612167565b9050919050565b600060208201905081810360008301526124ad8161218a565b9050919050565b600060208201905081810360008301526124cd816121ad565b9050919050565b600060208201905081810360008301526124ed816121d0565b9050919050565b6000602082019050818103600083015261250d816121f3565b9050919050565b6000602082019050818103600083015261252d81612216565b9050919050565b6000602082019050818103600083015261254d81612239565b9050919050565b6000602082019050818103600083015261256d8161225c565b9050919050565b6000602082019050818103600083015261258d8161227f565b9050919050565b60006020820190506125a960008301846122a2565b92915050565b60006125b96125ca565b90506125c5828261283b565b919050565b6000604051905090565b600067ffffffffffffffff8211156125ef576125ee612973565b5b6125f8826129a2565b9050602081019050919050565b600067ffffffffffffffff8211156126205761261f612973565b5b612629826129a2565b9050602081019050919050565b600081519050919050565b600081519050919050565b600082825260208201905092915050565b600082825260208201905092915050565b600081905092915050565b60006126848261279e565b915061268f8361279e565b9250827fffffffffffffffffffffffffffffffffffffffffffffffffffffffffffffffff038211156126c4576126c36128e6565b5b828201905092915050565b60006126da8261279e565b91506126e58361279e565b9250826126f5576126f4612915565b5b828204905092915050565b600061270b8261279e565b91506127168361279e565b925082821015612729576127286128e6565b5b828203905092915050565b600061273f8261277e565b9050919050565b60008115159050919050565b60007fffffffff0000000000000000000000000000000000000000000000000000000082169050919050565b600073ffffffffffffffffffffffffffffffffffffffff82169050919050565b6000819050919050565b600060ff82169050919050565b60006127c0826127a8565b9050919050565b82818337600083830152505050565b60005b838110156127f45780820151818401526020810190506127d9565b83811115612803576000848401525b50505050565b6000600282049050600182168061282157607f821691505b6020821081141561283557612834612944565b5b50919050565b612844826129a2565b810181811067ffffffffffffffff8211171561286357612862612973565b5b80604052505050565b60006128778261279e565b91507fffffffffffffffffffffffffffffffffffffffffffffffffffffffffffffffff8214156128aa576128a96128e6565b5b600182019050919050565b60006128c08261279e565b91506128cb8361279e565b9250826128db576128da612915565b5b828206905092915050565b7f4e487b7100000000000000000000000000000000000000000000000000000000600052601160045260246000fd5b7f4e487b7100000000000000000000000000000000000000000000000000000000600052601260045260246000fd5b7f4e487b7100000000000000000000000000000000000000000000000000000000600052602260045260246000fd5b7f4e487b7100000000000000000000000000000000000000000000000000000000600052604160045260246000fd5b6000601f19601f8301169050919050565b7f4552433732313a207472616e7366657220746f206e6f6e20455243373231526560008201527f63656976657220696d706c656d656e7465720000000000000000000000000000602082015250565b7f4552433732313a207472616e736665722066726f6d20696e636f72726563742060008201527f6f776e6572000000000000000000000000000000000000000000000000000000602082015250565b7f4552433732313a20746f6b656e20616c7265616479206d696e74656400000000600082015250565b7f4552433732313a207472616e7366657220746f20746865207a65726f2061646460008201527f7265737300000000000000000000000000000000000000000000000000000000602082015250565b7f4552433732313a20617070726f766520746f2063616c6c657200000000000000600082015250565b7f4552433732313a206f70657261746f7220717565727920666f72206e6f6e657860008201527f697374656e7420746f6b656e0000000000000000000000000000000000000000602082015250565b7f4552433732313a20617070726f76652063616c6c6572206973206e6f74206f7760008201527f6e6572206e6f7220617070726f76656420666f7220616c6c0000000000000000602082015250565b7f4552433732313a2062616c616e636520717565727920666f7220746865207a6560008201527f726f206164647265737300000000000000000000000000000000000000000000602082015250565b7f4552433732313a206f776e657220717565727920666f72206e6f6e657869737460008201527f656e7420746f6b656e0000000000000000000000000000000000000000000000602082015250565b7f496e697469616c697a61626c653a20636f6e747261637420697320616c72656160008201527f647920696e697469616c697a6564000000000000000000000000000000000000602082015250565b7f4552433732313a206d696e7420746f20746865207a65726f2061646472657373600082015250565b7f4552433732313a20617070726f76656420717565727920666f72206e6f6e657860008201527f697374656e7420746f6b656e0000000000000000000000000000000000000000602082015250565b7f4552433732314d657461646174613a2055524920717565727920666f72206e6f60008201527f6e6578697374656e7420746f6b656e0000000000000000000000000000000000602082015250565b7f4552433732313a20617070726f76616c20746f2063757272656e74206f776e6560008201527f7200000000000000000000000000000000000000000000000000000000000000602082015250565b7f4552433732313a207472616e736665722063616c6c6572206973206e6f74206f60008201527f776e6572206e6f7220617070726f766564000000000000000000000000000000602082015250565b7f496e697469616c697a61626c653a20636f6e7472616374206973206e6f74206960008201527f6e697469616c697a696e67000000000000000000000000000000000000000000602082015250565b612e3a81612734565b8114612e4557600080fd5b50565b612e5181612746565b8114612e5c57600080fd5b50565b612e6881612752565b8114612e7357600080fd5b50565b612e7f8161279e565b8114612e8a57600080fd5b5056fea26469706673582212207c10a6aea186eea800935265e1243bc3c91d924fd8bda9254a9bd3ae1147a49064736f6c63430008040033",
  "linkReferences": {},
  "deployedLinkReferences": {}
}